{
  "contractName": "BlackJackV2",
  "abi": [
    {
      "inputs": [
        {
          "internalType": "uint256",
          "name": "_minBet",
          "type": "uint256"
        },
        {
          "internalType": "uint256",
          "name": "_maxBet",
          "type": "uint256"
        }
      ],
      "stateMutability": "payable",
      "type": "constructor",
      "payable": true
    },
    {
      "inputs": [],
      "name": "dealer",
      "outputs": [
        {
          "internalType": "address",
          "name": "",
          "type": "address"
        }
      ],
      "stateMutability": "view",
      "type": "function",
      "constant": true
    },
    {
      "inputs": [],
      "name": "dealerBalance",
      "outputs": [
        {
          "internalType": "uint256",
          "name": "",
          "type": "uint256"
        }
      ],
      "stateMutability": "view",
      "type": "function",
      "constant": true
    },
    {
      "inputs": [],
      "name": "maxBet",
      "outputs": [
        {
          "internalType": "uint256",
          "name": "",
          "type": "uint256"
        }
      ],
      "stateMutability": "view",
      "type": "function",
      "constant": true
    },
    {
      "inputs": [],
      "name": "minBet",
      "outputs": [
        {
          "internalType": "uint256",
          "name": "",
          "type": "uint256"
        }
      ],
      "stateMutability": "view",
      "type": "function",
      "constant": true
    },
    {
      "inputs": [],
      "name": "player",
      "outputs": [
        {
          "internalType": "address",
          "name": "",
          "type": "address"
        }
      ],
      "stateMutability": "view",
      "type": "function",
      "constant": true
    },
    {
      "inputs": [],
      "name": "playerBalance",
      "outputs": [
        {
          "internalType": "uint256",
          "name": "",
          "type": "uint256"
        }
      ],
      "stateMutability": "view",
      "type": "function",
      "constant": true
    },
    {
      "inputs": [],
      "name": "joinGame",
      "outputs": [],
      "stateMutability": "payable",
      "type": "function",
      "payable": true
    },
    {
      "inputs": [],
      "name": "playerHitCard",
      "outputs": [],
      "stateMutability": "nonpayable",
      "type": "function"
    },
    {
      "inputs": [],
      "name": "playerStand",
      "outputs": [],
      "stateMutability": "nonpayable",
      "type": "function"
    },
    {
      "inputs": [],
      "name": "startGame",
      "outputs": [],
      "stateMutability": "nonpayable",
      "type": "function"
    },
    {
      "inputs": [],
      "name": "quitGame",
      "outputs": [],
      "stateMutability": "nonpayable",
      "type": "function"
    },
    {
      "inputs": [],
      "name": "getDealer",
      "outputs": [
        {
          "internalType": "address",
          "name": "",
          "type": "address"
        }
      ],
      "stateMutability": "view",
      "type": "function",
      "constant": true
    }
  ],
  "bytecode": "0x608060405260008060006101000a81548160ff021916908315150217905550609c67ffffffffffffffff8111156200003c576200003b620001cb565b5b6040519080825280602002602001820160405280156200006b5781602001602082028036833780820191505090505b5060089080519060200190620000839291906200015a565b50604051620014bf380380620014bf8339818101604052810190620000a991906200023a565b600a81620000b89190620002b0565b3411620000fc576040517f08c379a0000000000000000000000000000000000000000000000000000000008152600401620000f39062000372565b60405180910390fd5b816006819055508060078190555033600060016101000a81548173ffffffffffffffffffffffffffffffffffffffff021916908373ffffffffffffffffffffffffffffffffffffffff16021790555034600281905550505062000394565b82805482825590600052602060002090810192821562000199579160200282015b82811115620001985782518255916020019190600101906200017b565b5b509050620001a89190620001ac565b5090565b5b80821115620001c7576000816000905550600101620001ad565b5090565b7f4e487b7100000000000000000000000000000000000000000000000000000000600052604160045260246000fd5b600080fd5b6000819050919050565b6200021481620001ff565b81146200022057600080fd5b50565b600081519050620002348162000209565b92915050565b60008060408385031215620002545762000253620001fa565b5b6000620002648582860162000223565b9250506020620002778582860162000223565b9150509250929050565b7f4e487b7100000000000000000000000000000000000000000000000000000000600052601160045260246000fd5b6000620002bd82620001ff565b9150620002ca83620001ff565b9250817fffffffffffffffffffffffffffffffffffffffffffffffffffffffffffffffff048311821515161562000306576200030562000281565b5b828202905092915050565b600082825260208201905092915050565b7f596f752070726f7669646520746f6f206c6974746c6520626574000000000000600082015250565b60006200035a601a8362000311565b9150620003678262000322565b602082019050919050565b600060208201905081810360008301526200038d816200034b565b9050919050565b61111b80620003a46000396000f3fe6080604052600436106100a75760003560e01c80639de2ee21116100645780639de2ee21146101ae5780639fda4d05146101d9578063b4a60512146101f0578063c9f09d3814610207578063d4f77b1c1461021e578063d65ab5f214610228576100a7565b80632e5b2168146100ac57806348db5f89146100d75780635e5bad7c14610102578063651f066a1461012d5780639619367d146101585780639cf6d1af14610183575b600080fd5b3480156100b857600080fd5b506100c161023f565b6040516100ce9190610e5b565b60405180910390f35b3480156100e357600080fd5b506100ec610245565b6040516100f99190610eb7565b60405180910390f35b34801561010e57600080fd5b5061011761026b565b6040516101249190610e5b565b60405180910390f35b34801561013957600080fd5b50610142610271565b60405161014f9190610e5b565b60405180910390f35b34801561016457600080fd5b5061016d610277565b60405161017a9190610e5b565b60405180910390f35b34801561018f57600080fd5b5061019861027d565b6040516101a59190610eb7565b60405180910390f35b3480156101ba57600080fd5b506101c36102a6565b6040516101d09190610eb7565b60405180910390f35b3480156101e557600080fd5b506101ee6102cc565b005b3480156101fc57600080fd5b506102056103e9565b005b34801561021357600080fd5b5061021c6104a5565b005b6102266106b5565b005b34801561023457600080fd5b5061023d6107a2565b005b60075481565b600160009054906101000a900473ffffffffffffffffffffffffffffffffffffffff1681565b60025481565b60035481565b60065481565b60008060019054906101000a900473ffffffffffffffffffffffffffffffffffffffff16905090565b600060019054906101000a900473ffffffffffffffffffffffffffffffffffffffff1681565b600160009054906101000a900473ffffffffffffffffffffffffffffffffffffffff1673ffffffffffffffffffffffffffffffffffffffff163373ffffffffffffffffffffffffffffffffffffffff161461032657600080fd5b6001151560008054906101000a900460ff1615151461034457600080fd5b600061034e6109ed565b9050600581908060018154018082558091505060019003906000526020600020016000909190919091505560006103856005610a73565b90506001151561039482610cc0565b1515036103b65760008060006101000a81548160ff0219169083151502179055505b600115156103c382610d19565b1515036103e55760008060006101000a81548160ff0219169083151502179055505b5050565b600160009054906101000a900473ffffffffffffffffffffffffffffffffffffffff1673ffffffffffffffffffffffffffffffffffffffff163373ffffffffffffffffffffffffffffffffffffffff161461044357600080fd5b6000151560008054906101000a900460ff1615151461046157600080fd5b6000600160006101000a81548173ffffffffffffffffffffffffffffffffffffffff021916908373ffffffffffffffffffffffffffffffffffffffff160217905550565b600160009054906101000a900473ffffffffffffffffffffffffffffffffffffffff1673ffffffffffffffffffffffffffffffffffffffff163373ffffffffffffffffffffffffffffffffffffffff16148061054e5750600060019054906101000a900473ffffffffffffffffffffffffffffffffffffffff1673ffffffffffffffffffffffffffffffffffffffff163373ffffffffffffffffffffffffffffffffffffffff16145b61055757600080fd5b6001151560008054906101000a900460ff1615151461057557600080fd5b60006105816004610a73565b905060008160016002811061059957610598610ed2565b5b602002015190505b60118110156106285760046105b46109ed565b90806001815401808255809150506001900390600052602060002001600090919091909150556105e46004610a73565b91506015826001600281106105fc576105fb610ed2565b5b60200201511115610623578160006002811061061b5761061a610ed2565b5b602002015190505b6105a1565b60006106346005610a73565b9050600060158260016002811061064e5761064d610ed2565b5b60200201511115610679578160006002811061066d5761066c610ed2565b5b60200201519050610695565b8160016002811061068d5761068c610ed2565b5b602002015190505b60008060006101000a81548160ff02191690831515021790555050505050565b600073ffffffffffffffffffffffffffffffffffffffff16600160009054906101000a900473ffffffffffffffffffffffffffffffffffffffff1673ffffffffffffffffffffffffffffffffffffffff161461071057600080fd5b600654341015801561072457506007543411155b61072d57600080fd5b6000600a3461073c9190610f30565b1461074657600080fd5b33600160006101000a81548173ffffffffffffffffffffffffffffffffffffffff021916908373ffffffffffffffffffffffffffffffffffffffff16021790555034600360008282546107999190610f90565b92505081905550565b600060019054906101000a900473ffffffffffffffffffffffffffffffffffffffff1673ffffffffffffffffffffffffffffffffffffffff163373ffffffffffffffffffffffffffffffffffffffff16146107fc57600080fd5b600073ffffffffffffffffffffffffffffffffffffffff16600060019054906101000a900473ffffffffffffffffffffffffffffffffffffffff1673ffffffffffffffffffffffffffffffffffffffff16141580156108aa5750600073ffffffffffffffffffffffffffffffffffffffff16600160009054906101000a900473ffffffffffffffffffffffffffffffffffffffff1673ffffffffffffffffffffffffffffffffffffffff1614155b6108b357600080fd5b60016000806101000a81548160ff0219169083151502179055506108d5610d4f565b60006108df6109ed565b9050600581908060018154018082558091505060019003906000526020600020016000909190919091505560006109146109ed565b9050600481908060018154018082558091505060019003906000526020600020016000909190919091505560006109496109ed565b90506005819080600181540180825580915050600190039060005260206000200160009091909190915055600061097e6109ed565b9050600481908060018154018082558091505060019003906000526020600020016000909190919091505560006109b56005610a73565b9050600115156109c482610cc0565b1515036109e65760008060006101000a81548160ff0219169083151502179055505b5050505050565b600080609c6109fa610d99565b610a049190610f30565b90505b600060088281548110610a1d57610a1c610ed2565b5b906000526020600020015403610a4857609c610a37610d99565b610a419190610f30565b9050610a07565b600060088281548110610a5e57610a5d610ed2565b5b90600052602060002001819055508091505090565b610a7b610e20565b60006040518060400160405280600081526020016000815250905060005b8380549050811015610cb6576000848281548110610aba57610ab9610ed2565b5b90600052602060002001549050600060016004603484610ada9190610f30565b610ae49190610f30565b610aee9190610f90565b9050600a811115610b5a57600a84600060028110610b0f57610b0e610ed2565b5b60200201818151610b209190610f90565b91508181525050600a84600160028110610b3d57610b3c610ed2565b5b60200201818151610b4e9190610f90565b91508181525050610ca1565b60018103610c4557600b84600160028110610b7857610b77610ed2565b5b602002015110610be357600184600060028110610b9857610b97610ed2565b5b60200201818151610ba99190610f90565b91508181525050600184600160028110610bc657610bc5610ed2565b5b60200201818151610bd79190610f90565b91508181525050610c40565b600184600060028110610bf957610bf8610ed2565b5b60200201818151610c0a9190610f90565b91508181525050600b84600160028110610c2757610c26610ed2565b5b60200201818151610c389190610f90565b915081815250505b610ca0565b8084600060028110610c5a57610c59610ed2565b5b60200201818151610c6b9190610f90565b915081815250508084600160028110610c8757610c86610ed2565b5b60200201818151610c989190610f90565b915081815250505b5b50508080610cae90610fe6565b915050610a99565b5080915050919050565b6000601582600060028110610cd857610cd7610ed2565b5b60200201511480610d015750601582600160028110610cfa57610cf9610ed2565b5b6020020151145b15610d0f5760019050610d14565b600090505b919050565b6000601582600060028110610d3157610d30610ed2565b5b60200201511115610d455760019050610d4a565b600090505b919050565b60005b600880549050811015610d9657600160088281548110610d7557610d74610ed2565b5b90600052602060002001819055508080610d8e90610fe6565b915050610d52565b50565b6000609c4442600060019054906101000a900473ffffffffffffffffffffffffffffffffffffffff16600160009054906101000a900473ffffffffffffffffffffffffffffffffffffffff16604051602001610df89493929190611097565b6040516020818303038152906040528051906020012060001c610e1b9190610f30565b905090565b6040518060400160405280600290602082028036833780820191505090505090565b6000819050919050565b610e5581610e42565b82525050565b6000602082019050610e706000830184610e4c565b92915050565b600073ffffffffffffffffffffffffffffffffffffffff82169050919050565b6000610ea182610e76565b9050919050565b610eb181610e96565b82525050565b6000602082019050610ecc6000830184610ea8565b92915050565b7f4e487b7100000000000000000000000000000000000000000000000000000000600052603260045260246000fd5b7f4e487b7100000000000000000000000000000000000000000000000000000000600052601260045260246000fd5b6000610f3b82610e42565b9150610f4683610e42565b925082610f5657610f55610f01565b5b828206905092915050565b7f4e487b7100000000000000000000000000000000000000000000000000000000600052601160045260246000fd5b6000610f9b82610e42565b9150610fa683610e42565b9250827fffffffffffffffffffffffffffffffffffffffffffffffffffffffffffffffff03821115610fdb57610fda610f61565b5b828201905092915050565b6000610ff182610e42565b91507fffffffffffffffffffffffffffffffffffffffffffffffffffffffffffffffff820361102357611022610f61565b5b600182019050919050565b6000819050919050565b61104961104482610e42565b61102e565b82525050565b60008160601b9050919050565b60006110678261104f565b9050919050565b60006110798261105c565b9050919050565b61109161108c82610e96565b61106e565b82525050565b60006110a38287611038565b6020820191506110b38286611038565b6020820191506110c38285611080565b6014820191506110d38284611080565b6014820191508190509594505050505056fea26469706673582212202436a7b9cf33b41d51914f20b98dd71cb1808b1e923add946fa0585ca56f2a4164736f6c634300080d0033",
  "immutableReferences": {},
  "source": "// SPDX-License-Identifier: MIT\npragma solidity ^0.8.13;\n\n//import \"hardhat/console.sol\";\n\ncontract BlackJackV2 {\n\n  bool gameStart = false;\n\n  address public dealer;\n  address public player;\n\n  uint public dealerBalance;\n  uint public playerBalance;\n\n  uint[] dealerHand; // store the card indexes in dealer's hand\n  uint[] playerHand; // store the card indexes in player's hand\n\n  uint public minBet;\n  uint public maxBet; // minBet and maxBet for each round, defined by dealer when he deploy the contract.\n\n  // the whole deck of the game, cards are drawn in this deck.\n  // length = 52 * 3, meaning we are using 3 decks of cards.\n  // this is to store whether a specifc card still exists.\n  uint[] deck = new uint[](52*3);\n\n  // CONSTRUCTOR\n  constructor(uint _minBet, uint _maxBet) payable {\n\n    require(msg.value > _maxBet * 10, \"You provide too little bet\");\n    minBet = _minBet;\n    maxBet = _maxBet;\n    dealer = msg.sender;\n    dealerBalance = msg.value;\n\n  }\n\n\n  // change the number of cards as 1,\n  // deck from [0, 0, 0, ... , 0]\n  //        to [1, 1, 1, ... , 1].\n  function defaultCardDeck() private {\n    for (uint i = 0; i < deck.length; i++) {\n      deck[i] = 1;\n    }\n  }\n\n\n  // generate a random number, we need to figure out a better way maybe?\n  // we need to ensure the random number cannot be guessed given the params\n  // in keccak within a block mining round time\n  function randomNumber() private view returns(uint) {\n    return uint(keccak256(abi.encodePacked(block.difficulty, block.timestamp, dealer, player))) % (52 * 3);\n  }\n\n\n  // anyone can join this game, once (s)he's in, the player can only be him/her.\n  // only admit players to join in if no other player is in the game.\n  // *** CALLABLE\n  function joinGame() public payable {\n    //console.log(minBet);\n    //console.log(maxBet);\n    require (player == address(0));\n    require (msg.value >= minBet && msg.value <= maxBet);\n    require (msg.value % 10 == 0);\n    player = msg.sender;\n    playerBalance += msg.value;\n\n  }\n\n  // *** CALLABLE\n  // function putBet() public payable onlyPlayer {\n  //   require (msg.value >= minBet && msg.value <= maxBet);\n  //   require (msg.value % 10 == 0);\n  //   playerBalance += msg.value;\n  // }\n\n\n  // randomly draw a card from deck, if the card drawn is drawn before, draw again,\n  // if the card drawn is never drawn before, set deck[index] => 0.\n  // *** CALLABLE\n  function hitCard() private returns(uint) {\n    uint randomCardIndex = randomNumber() % (52 * 3);\n    while (deck[randomCardIndex] == 0) {\n      randomCardIndex = randomNumber() % (52 * 3);\n    }\n    deck[randomCardIndex] = 0;\n    return randomCardIndex;\n  }\n\n  // *** CALLABLE\n  function playerHitCard() public onlyPlayer {\n    require (gameStart == true);\n    uint newCard = hitCard();\n    playerHand.push(newCard);\n    uint[2] memory playerCardValues = getSumInHand(playerHand);\n    if (check21(playerCardValues) == true) {\n      // transfer the balance to the player\n      gameStart = false;\n    }\n    if (checkOver21(playerCardValues) == true) {\n      // transfer the balance to the dealer\n      gameStart = false;\n    }\n  }\n\n  // *** CALLABLE\n  function playerStand() public {\n    // dealer call when time out\n    require (msg.sender == player || msg.sender == dealer);\n    require (gameStart == true);\n    uint[2] memory dealerCardValues = getSumInHand(dealerHand);\n    uint dealerLargerValue = dealerCardValues[1];\n    while (dealerLargerValue < 17) {\n      dealerHand.push(hitCard());\n      dealerCardValues = getSumInHand(dealerHand);\n      if (dealerCardValues[1] > 21) {\n        dealerLargerValue = dealerCardValues[0];\n      }\n    }\n    uint[2] memory playerCardValue = getSumInHand(playerHand);\n    uint playerLargerValue = 0;\n    if (playerCardValue[1] > 21) {\n      playerLargerValue = playerCardValue[0];\n    } else {\n      playerLargerValue = playerCardValue[1];\n    }\n    if (dealerLargerValue >= playerLargerValue) {\n      // deduct player balance, add to dealer's balance;\n    } else {\n      // transfer money to player, same amount as player's balance\n    }\n    gameStart = false;\n  }\n\n\n  // returns the sum of the card values in player/dealers hand\n  // array because we at most have two values in hand (considering Ace)\n  // for example,\n  // cardInHand = [A, J] => [11, 21]\n  // cardInHand = [A, A] => [2, 12]\n  // cardInHand = [A, A, A] => [3, 13]\n  // cardInHand = [1, 2, 3] => [6, 6]\n  // cardInHand = [J, K, Q] => [30, 30]\n  // cardInHand = [A, A, 10] => [12, 22]\n  function getSumInHand(uint[] storage hand) private view returns(uint[2] memory) {\n    uint[2] memory cardValues = [uint(0), uint(0)];\n    for (uint i = 0; i < hand.length; i++) {\n      uint cardIndex = hand[i];\n      uint cardValue = cardIndex % 52 % 4 + 1;\n      if (cardValue > 10) {\n        cardValues[0] += 10;\n        cardValues[1] += 10;\n      } else if (cardValue == 1) {\n        if (cardValues[1] >= 11) {\n          cardValues[0] += 1;\n          cardValues[1] += 1;\n        } else {\n          cardValues[0] += 1;\n          cardValues[1] += 11;\n        }\n      } else {\n        cardValues[0] += cardValue;\n        cardValues[1] += cardValue;\n      }\n    }\n    return cardValues;\n  }\n\n\n  // get the possible sums of card in hand.\n  // if any is 21, return true, else return false\n  // only trigger at the initial stage.\n  function check21(uint[2] memory cardValues) private pure returns(bool){\n    if (cardValues[0] == 21 || cardValues[1] == 21) {\n      return true;\n    }\n    return false;\n  }\n\n\n  // check if the player/dealer can still hit cards, if both possible sum in his/her hand > 21\n  // return true, else return false.\n  function checkOver21(uint[2] memory cardValues) private pure returns(bool) {\n    if (cardValues[0] > 21){\n      return true;\n    }\n    return false;\n  }\n\n\n  // start game, only dealer can call.\n  // *** CALLABLE\n  function startGame() public onlyDealer() {\n    require (dealer != address(0) && player != address(0));\n    gameStart = true;\n    defaultCardDeck();\n\n    // send the initial two cards to both\n    uint playerCard1 = hitCard();\n    playerHand.push(playerCard1);\n    uint dealerCard1 = hitCard();\n    dealerHand.push(dealerCard1);\n    uint playerCard2 = hitCard();\n    playerHand.push(playerCard2);\n    uint dealerCard2 = hitCard();\n    dealerHand.push(dealerCard2);\n\n    // check if cardValue of player is == 21\n    uint[2] memory playerCardValues = getSumInHand(playerHand);\n    if (check21(playerCardValues) == true) {\n      // transfer players balance * 2\n      gameStart = false;\n    }\n    // check if cardValue of dealerCard2 is == 1, if yes, insurance\n    // check if cardValue of playerCard1 == playerCard2, if yes, split. This part is hard because i cant figure out a way to store multiple hands of a single player.\n  }\n\n\n  // a player can only quit a game if the game is not on.\n  // CALLABLE ***\n  function quitGame() public onlyPlayer {\n    require(gameStart == false);\n    player = address(0);\n  }\n\n  function getDealer() public view returns (address){\n    return dealer;\n  }\n   \n\n\n  // MODIFIERs\n\n  modifier onlyPlayer() {\n    require (msg.sender == player);\n    _;\n  }\n\n\n  modifier onlyDealer() {\n    require (msg.sender == dealer);\n    _;\n  }\n \n}\n\n\n\n\n\n// END OF THE FILE\n",
  "sourcePath": "/Users/tedwu/Desktop/ 4/Blackjack/Blackjack_frontend/truffle/contracts/BlackJackV2.sol",
  "compiler": {
    "name": "solc",
    "version": "0.8.13+commit.abaa5c0e.Emscripten.clang"
  },
  "schemaVersion": "3.4.7",
  "updatedAt": "2022-05-21T12:23:09.623Z",
  "networkType": "ethereum",
  "devdoc": {
    "kind": "dev",
    "methods": {},
    "version": 1
  },
  "userdoc": {
    "kind": "user",
    "methods": {},
    "version": 1
  }
}