{
  "contractName": "BlackJackV2",
  "abi": [
    {
      "inputs": [
        {
          "internalType": "uint256",
          "name": "_minBet",
          "type": "uint256"
        },
        {
          "internalType": "uint256",
          "name": "_maxBet",
          "type": "uint256"
        }
      ],
      "stateMutability": "payable",
      "type": "constructor",
      "payable": true
    },
    {
      "inputs": [],
      "name": "dealer",
      "outputs": [
        {
          "internalType": "address",
          "name": "",
          "type": "address"
        }
      ],
      "stateMutability": "view",
      "type": "function",
      "constant": true
    },
    {
      "inputs": [],
      "name": "dealerBalance",
      "outputs": [
        {
          "internalType": "uint256",
          "name": "",
          "type": "uint256"
        }
      ],
      "stateMutability": "view",
      "type": "function",
      "constant": true
    },
    {
      "inputs": [],
      "name": "gameStart",
      "outputs": [
        {
          "internalType": "bool",
          "name": "",
          "type": "bool"
        }
      ],
      "stateMutability": "view",
      "type": "function",
      "constant": true
    },
    {
      "inputs": [],
      "name": "maxBet",
      "outputs": [
        {
          "internalType": "uint256",
          "name": "",
          "type": "uint256"
        }
      ],
      "stateMutability": "view",
      "type": "function",
      "constant": true
    },
    {
      "inputs": [],
      "name": "minBet",
      "outputs": [
        {
          "internalType": "uint256",
          "name": "",
          "type": "uint256"
        }
      ],
      "stateMutability": "view",
      "type": "function",
      "constant": true
    },
    {
      "inputs": [],
      "name": "player",
      "outputs": [
        {
          "internalType": "address",
          "name": "",
          "type": "address"
        }
      ],
      "stateMutability": "view",
      "type": "function",
      "constant": true
    },
    {
      "inputs": [],
      "name": "playerBalance",
      "outputs": [
        {
          "internalType": "uint256",
          "name": "",
          "type": "uint256"
        }
      ],
      "stateMutability": "view",
      "type": "function",
      "constant": true
    },
    {
      "inputs": [],
      "name": "joinGame",
      "outputs": [],
      "stateMutability": "payable",
      "type": "function",
      "payable": true
    },
    {
      "inputs": [],
      "name": "playerHitCard",
      "outputs": [],
      "stateMutability": "nonpayable",
      "type": "function"
    },
    {
      "inputs": [],
      "name": "playerStand",
      "outputs": [],
      "stateMutability": "nonpayable",
      "type": "function"
    },
    {
      "inputs": [],
      "name": "startGame",
      "outputs": [],
      "stateMutability": "nonpayable",
      "type": "function"
    },
    {
      "inputs": [],
      "name": "quitGame",
      "outputs": [],
      "stateMutability": "nonpayable",
      "type": "function"
    },
    {
      "inputs": [],
      "name": "getDealerHand",
      "outputs": [
        {
          "internalType": "uint256[]",
          "name": "",
          "type": "uint256[]"
        }
      ],
      "stateMutability": "nonpayable",
      "type": "function"
    },
    {
      "inputs": [],
      "name": "getPlayerHand",
      "outputs": [
        {
          "internalType": "uint256[]",
          "name": "",
          "type": "uint256[]"
        }
      ],
      "stateMutability": "nonpayable",
      "type": "function"
    }
  ],
  "bytecode": "0x608060405260008060006101000a81548160ff021916908315150217905550609c67ffffffffffffffff8111156200003c576200003b620001cb565b5b6040519080825280602002602001820160405280156200006b5781602001602082028036833780820191505090505b5060099080519060200190620000839291906200015a565b5060405162001784380380620017848339818101604052810190620000a991906200023a565b600a81620000b89190620002b0565b3411620000fc576040517f08c379a0000000000000000000000000000000000000000000000000000000008152600401620000f39062000372565b60405180910390fd5b816007819055508060088190555033600060016101000a81548173ffffffffffffffffffffffffffffffffffffffff021916908373ffffffffffffffffffffffffffffffffffffffff16021790555034600281905550505062000394565b82805482825590600052602060002090810192821562000199579160200282015b82811115620001985782518255916020019190600101906200017b565b5b509050620001a89190620001ac565b5090565b5b80821115620001c7576000816000905550600101620001ad565b5090565b7f4e487b7100000000000000000000000000000000000000000000000000000000600052604160045260246000fd5b600080fd5b6000819050919050565b6200021481620001ff565b81146200022057600080fd5b50565b600081519050620002348162000209565b92915050565b60008060408385031215620002545762000253620001fa565b5b6000620002648582860162000223565b9250506020620002778582860162000223565b9150509250929050565b7f4e487b7100000000000000000000000000000000000000000000000000000000600052601160045260246000fd5b6000620002bd82620001ff565b9150620002ca83620001ff565b9250817fffffffffffffffffffffffffffffffffffffffffffffffffffffffffffffffff048311821515161562000306576200030562000281565b5b828202905092915050565b600082825260208201905092915050565b7f596f752070726f7669646520746f6f206c6974746c6520626574000000000000600082015250565b60006200035a601a8362000311565b9150620003678262000322565b602082019050919050565b600060208201905081810360008301526200038d816200034b565b9050919050565b6113e080620003a46000396000f3fe6080604052600436106100dd5760003560e01c80639de2ee211161007f578063c9f09d3811610059578063c9f09d3814610268578063d4f77b1c1461027f578063d65ab5f214610289578063fffae4fa146102a0576100dd565b80639de2ee211461020f5780639fda4d051461023a578063b4a6051214610251576100dd565b806348db5f89116100bb57806348db5f89146101635780635e5bad7c1461018e578063651f066a146101b95780639619367d146101e4576100dd565b80631ab9964c146100e25780632e5b21681461010d5780633218b99d14610138575b600080fd5b3480156100ee57600080fd5b506100f76102cb565b604051610104919061107c565b60405180910390f35b34801561011957600080fd5b50610122610323565b60405161012f91906110ad565b60405180910390f35b34801561014457600080fd5b5061014d610329565b60405161015a91906110e3565b60405180910390f35b34801561016f57600080fd5b5061017861033a565b604051610185919061113f565b60405180910390f35b34801561019a57600080fd5b506101a3610360565b6040516101b091906110ad565b60405180910390f35b3480156101c557600080fd5b506101ce610366565b6040516101db91906110ad565b60405180910390f35b3480156101f057600080fd5b506101f961036c565b60405161020691906110ad565b60405180910390f35b34801561021b57600080fd5b50610224610372565b604051610231919061113f565b60405180910390f35b34801561024657600080fd5b5061024f610398565b005b34801561025d57600080fd5b506102666104b5565b005b34801561027457600080fd5b5061027d610571565b005b610287610781565b005b34801561029557600080fd5b5061029e61086e565b005b3480156102ac57600080fd5b506102b5610ab9565b6040516102c2919061107c565b60405180910390f35b6060600580548060200260200160405190810160405280929190818152602001828054801561031957602002820191906000526020600020905b815481526020019060010190808311610305575b5050505050905090565b60085481565b60008054906101000a900460ff1681565b600160009054906101000a900473ffffffffffffffffffffffffffffffffffffffff1681565b60025481565b60035481565b60075481565b600060019054906101000a900473ffffffffffffffffffffffffffffffffffffffff1681565b600160009054906101000a900473ffffffffffffffffffffffffffffffffffffffff1673ffffffffffffffffffffffffffffffffffffffff163373ffffffffffffffffffffffffffffffffffffffff16146103f257600080fd5b6001151560008054906101000a900460ff1615151461041057600080fd5b600061041a610b11565b9050600581908060018154018082558091505060019003906000526020600020016000909190919091505560006104516005610bb1565b90506001151561046082610dfe565b1515036104825760008060006101000a81548160ff0219169083151502179055505b6001151561048f82610e57565b1515036104b15760008060006101000a81548160ff0219169083151502179055505b5050565b600160009054906101000a900473ffffffffffffffffffffffffffffffffffffffff1673ffffffffffffffffffffffffffffffffffffffff163373ffffffffffffffffffffffffffffffffffffffff161461050f57600080fd5b6000151560008054906101000a900460ff1615151461052d57600080fd5b6000600160006101000a81548173ffffffffffffffffffffffffffffffffffffffff021916908373ffffffffffffffffffffffffffffffffffffffff160217905550565b600160009054906101000a900473ffffffffffffffffffffffffffffffffffffffff1673ffffffffffffffffffffffffffffffffffffffff163373ffffffffffffffffffffffffffffffffffffffff16148061061a5750600060019054906101000a900473ffffffffffffffffffffffffffffffffffffffff1673ffffffffffffffffffffffffffffffffffffffff163373ffffffffffffffffffffffffffffffffffffffff16145b61062357600080fd5b6001151560008054906101000a900460ff1615151461064157600080fd5b600061064d6004610bb1565b90506000816001600281106106655761066461115a565b5b602002015190505b60118110156106f4576004610680610b11565b90806001815401808255809150506001900390600052602060002001600090919091909150556106b06004610bb1565b91506015826001600281106106c8576106c761115a565b5b602002015111156106ef57816000600281106106e7576106e661115a565b5b602002015190505b61066d565b60006107006005610bb1565b9050600060158260016002811061071a5761071961115a565b5b6020020151111561074557816000600281106107395761073861115a565b5b60200201519050610761565b816001600281106107595761075861115a565b5b602002015190505b60008060006101000a81548160ff02191690831515021790555050505050565b600073ffffffffffffffffffffffffffffffffffffffff16600160009054906101000a900473ffffffffffffffffffffffffffffffffffffffff1673ffffffffffffffffffffffffffffffffffffffff16146107dc57600080fd5b60075434101580156107f057506008543411155b6107f957600080fd5b6000600a3461080891906111b8565b1461081257600080fd5b33600160006101000a81548173ffffffffffffffffffffffffffffffffffffffff021916908373ffffffffffffffffffffffffffffffffffffffff16021790555034600360008282546108659190611218565b92505081905550565b600060019054906101000a900473ffffffffffffffffffffffffffffffffffffffff1673ffffffffffffffffffffffffffffffffffffffff163373ffffffffffffffffffffffffffffffffffffffff16146108c857600080fd5b600073ffffffffffffffffffffffffffffffffffffffff16600060019054906101000a900473ffffffffffffffffffffffffffffffffffffffff1673ffffffffffffffffffffffffffffffffffffffff16141580156109765750600073ffffffffffffffffffffffffffffffffffffffff16600160009054906101000a900473ffffffffffffffffffffffffffffffffffffffff1673ffffffffffffffffffffffffffffffffffffffff1614155b61097f57600080fd5b60016000806101000a81548160ff0219169083151502179055506109a1610e8d565b60006109ab610b11565b9050600581908060018154018082558091505060019003906000526020600020016000909190919091505560006109e0610b11565b905060048190806001815401808255809150506001900390600052602060002001600090919091909150556000610a15610b11565b905060058190806001815401808255809150506001900390600052602060002001600090919091909150556000610a4a610b11565b905060048190806001815401808255809150506001900390600052602060002001600090919091909150556000610a816005610bb1565b905060011515610a9082610dfe565b151503610ab25760008060006101000a81548160ff0219169083151502179055505b5050505050565b60606004805480602002602001604051908101604052809291908181526020018280548015610b0757602002820191906000526020600020905b815481526020019060010190808311610af3575b5050505050905090565b600080609c610b1e610ed7565b610b2891906111b8565b90505b600060098281548110610b4157610b4061115a565b5b906000526020600020015403610b6c57609c610b5b610ed7565b610b6591906111b8565b9050610b2b565b600060098281548110610b8257610b8161115a565b5b9060005260206000200181905550600160066000828254610ba39190611218565b925050819055508091505090565b610bb9610f92565b60006040518060400160405280600081526020016000815250905060005b8380549050811015610df4576000848281548110610bf857610bf761115a565b5b9060005260206000200154905060006001600d603484610c1891906111b8565b610c2291906111b8565b610c2c9190611218565b9050600a811115610c9857600a84600060028110610c4d57610c4c61115a565b5b60200201818151610c5e9190611218565b91508181525050600a84600160028110610c7b57610c7a61115a565b5b60200201818151610c8c9190611218565b91508181525050610ddf565b60018103610d8357600b84600160028110610cb657610cb561115a565b5b602002015110610d2157600184600060028110610cd657610cd561115a565b5b60200201818151610ce79190611218565b91508181525050600184600160028110610d0457610d0361115a565b5b60200201818151610d159190611218565b91508181525050610d7e565b600184600060028110610d3757610d3661115a565b5b60200201818151610d489190611218565b91508181525050600b84600160028110610d6557610d6461115a565b5b60200201818151610d769190611218565b915081815250505b610dde565b8084600060028110610d9857610d9761115a565b5b60200201818151610da99190611218565b915081815250508084600160028110610dc557610dc461115a565b5b60200201818151610dd69190611218565b915081815250505b5b50508080610dec9061126e565b915050610bd7565b5080915050919050565b6000601582600060028110610e1657610e1561115a565b5b60200201511480610e3f5750601582600160028110610e3857610e3761115a565b5b6020020151145b15610e4d5760019050610e52565b600090505b919050565b6000601582600060028110610e6f57610e6e61115a565b5b60200201511115610e835760019050610e88565b600090505b919050565b60005b600980549050811015610ed457600160098281548110610eb357610eb261115a565b5b90600052602060002001819055508080610ecc9061126e565b915050610e90565b50565b60008042600654604051602001610eef9291906112d7565b6040516020818303038152906040528051906020012060001c9050609c814442600060019054906101000a900473ffffffffffffffffffffffffffffffffffffffff16600160009054906101000a900473ffffffffffffffffffffffffffffffffffffffff16604051602001610f6995949392919061134b565b6040516020818303038152906040528051906020012060001c610f8c91906111b8565b91505090565b6040518060400160405280600290602082028036833780820191505090505090565b600081519050919050565b600082825260208201905092915050565b6000819050602082019050919050565b6000819050919050565b610ff381610fe0565b82525050565b60006110058383610fea565b60208301905092915050565b6000602082019050919050565b600061102982610fb4565b6110338185610fbf565b935061103e83610fd0565b8060005b8381101561106f5781516110568882610ff9565b975061106183611011565b925050600181019050611042565b5085935050505092915050565b60006020820190508181036000830152611096818461101e565b905092915050565b6110a781610fe0565b82525050565b60006020820190506110c2600083018461109e565b92915050565b60008115159050919050565b6110dd816110c8565b82525050565b60006020820190506110f860008301846110d4565b92915050565b600073ffffffffffffffffffffffffffffffffffffffff82169050919050565b6000611129826110fe565b9050919050565b6111398161111e565b82525050565b60006020820190506111546000830184611130565b92915050565b7f4e487b7100000000000000000000000000000000000000000000000000000000600052603260045260246000fd5b7f4e487b7100000000000000000000000000000000000000000000000000000000600052601260045260246000fd5b60006111c382610fe0565b91506111ce83610fe0565b9250826111de576111dd611189565b5b828206905092915050565b7f4e487b7100000000000000000000000000000000000000000000000000000000600052601160045260246000fd5b600061122382610fe0565b915061122e83610fe0565b9250827fffffffffffffffffffffffffffffffffffffffffffffffffffffffffffffffff03821115611263576112626111e9565b5b828201905092915050565b600061127982610fe0565b91507fffffffffffffffffffffffffffffffffffffffffffffffffffffffffffffffff82036112ab576112aa6111e9565b5b600182019050919050565b6000819050919050565b6112d16112cc82610fe0565b6112b6565b82525050565b60006112e382856112c0565b6020820191506112f382846112c0565b6020820191508190509392505050565b60008160601b9050919050565b600061131b82611303565b9050919050565b600061132d82611310565b9050919050565b6113456113408261111e565b611322565b82525050565b600061135782886112c0565b60208201915061136782876112c0565b60208201915061137782866112c0565b6020820191506113878285611334565b6014820191506113978284611334565b601482019150819050969550505050505056fea2646970667358221220b3931dabb1b07022e4848f65b6ffc6e8a650cb0d7984bd10754def9da6e6235364736f6c634300080d0033",
  "immutableReferences": {},
  "source": "// SPDX-License-Identifier: MIT\npragma solidity ^0.8.13;\n\n//import \"hardhat/console.sol\";\n\ncontract BlackJackV2 {\n\n  bool public gameStart = false;\n\n  address public dealer;\n  address public player;\n\n  uint public dealerBalance;\n  uint public playerBalance;\n\n  uint[] dealerHand; // store the card indexes in dealer's hand\n  uint[] playerHand; // store the card indexes in player's hand\n  uint cardDrawn;\n\n  uint public minBet;\n  uint public maxBet; // minBet and maxBet for each round, defined by dealer when he deploy the contract.\n\n  // the whole deck of the game, cards are drawn in this deck.\n  // length = 52 * 3, meaning we are using 3 decks of cards.\n  // this is to store whether a specifc card still exists.\n  uint[] deck = new uint[](52*3);\n\n  // CONSTRUCTOR\n  constructor(uint _minBet, uint _maxBet) payable {\n\n    require(msg.value > _maxBet * 10, \"You provide too little bet\");\n    minBet = _minBet;\n    maxBet = _maxBet;\n    dealer = msg.sender;\n    dealerBalance = msg.value;\n\n  }\n\n\n  // change the number of cards as 1,\n  // deck from [0, 0, 0, ... , 0]\n  //        to [1, 1, 1, ... , 1].\n  function defaultCardDeck() private {\n    for (uint i = 0; i < deck.length; i++) {\n      deck[i] = 1;\n    }\n  }\n\n\n  // generate a random number, we need to figure out a better way maybe?\n  // we need to ensure the random number cannot be guessed given the params\n  // in keccak within a block mining round time\n  function randomNumber() private view returns(uint) {\n    uint hashCardDrawn = uint(keccak256(abi.encodePacked(block.timestamp, cardDrawn)));\n    return uint(keccak256(abi.encodePacked(hashCardDrawn, block.difficulty, block.timestamp, dealer, player))) % (52 * 3);\n  }\n\n\n  // anyone can join this game, once (s)he's in, the player can only be him/her.\n  // only admit players to join in if no other player is in the game.\n  // *** CALLABLE\n  function joinGame() public payable {\n    //console.log(minBet);\n    //console.log(maxBet);\n    require (player == address(0));\n    require (msg.value >= minBet && msg.value <= maxBet);\n    require (msg.value % 10 == 0);\n    player = msg.sender;\n    playerBalance += msg.value;\n\n  }\n\n  // *** CALLABLE\n  // function putBet() public payable onlyPlayer {\n  //   require (msg.value >= minBet && msg.value <= maxBet);\n  //   require (msg.value % 10 == 0);\n  //   playerBalance += msg.value;\n  // }\n\n\n  // randomly draw a card from deck, if the card drawn is drawn before, draw again,\n  // if the card drawn is never drawn before, set deck[index] => 0.\n  // *** CALLABLE\n  function hitCard() private returns(uint) {\n    uint randomCardIndex = randomNumber() % (52 * 3);\n    while (deck[randomCardIndex] == 0) {\n      randomCardIndex = randomNumber() % (52 * 3);\n    }\n    deck[randomCardIndex] = 0;\n    cardDrawn += 1;\n    return randomCardIndex;\n  }\n\n  // *** CALLABLE\n  function playerHitCard() public onlyPlayer {\n    require (gameStart == true);\n    uint newCard = hitCard();\n    playerHand.push(newCard);\n    uint[2] memory playerCardValues = getSumInHand(playerHand);\n    if (check21(playerCardValues) == true) {\n      // transfer the balance to the player\n      gameStart = false;\n    }\n    if (checkOver21(playerCardValues) == true) {\n      // transfer the balance to the dealer\n      gameStart = false;\n    }\n  }\n\n  // *** CALLABLE\n  function playerStand() public {\n    // dealer call when time out\n    require (msg.sender == player || msg.sender == dealer);\n    require (gameStart == true);\n    uint[2] memory dealerCardValues = getSumInHand(dealerHand);\n    uint dealerLargerValue = dealerCardValues[1];\n    while (dealerLargerValue < 17) {\n      dealerHand.push(hitCard());\n      dealerCardValues = getSumInHand(dealerHand);\n      if (dealerCardValues[1] > 21) {\n        dealerLargerValue = dealerCardValues[0];\n      }\n    }\n    if (dealerLargerValue > 21) {\n      // transfer money to player\n    }\n    uint[2] memory playerCardValue = getSumInHand(playerHand);\n    uint playerLargerValue = 0;\n    if (playerCardValue[1] > 21) {\n      playerLargerValue = playerCardValue[0];\n    } else {\n      playerLargerValue = playerCardValue[1];\n    }\n    if (dealerLargerValue >= playerLargerValue) {\n      // deduct player balance, add to dealer's balance;\n    } else {\n      // transfer money to player, same amount as player's balance\n    }\n    gameStart = false;\n  }\n\n\n  // returns the sum of the card values in player/dealers hand\n  // array because we at most have two values in hand (considering Ace)\n  // for example,\n  // cardInHand = [A, J] => [11, 21]\n  // cardInHand = [A, A] => [2, 12]\n  // cardInHand = [A, A, A] => [3, 13]\n  // cardInHand = [1, 2, 3] => [6, 6]\n  // cardInHand = [J, K, Q] => [30, 30]\n  // cardInHand = [A, A, 10] => [12, 22]\n  function getSumInHand(uint[] storage hand) private view returns(uint[2] memory) {\n    uint[2] memory cardValues = [uint(0), uint(0)];\n    for (uint i = 0; i < hand.length; i++) {\n      uint cardIndex = hand[i];\n      uint cardValue = cardIndex % 52 % 13 + 1;\n      if (cardValue > 10) {\n        cardValues[0] += 10;\n        cardValues[1] += 10;\n      } else if (cardValue == 1) {\n        if (cardValues[1] >= 11) {\n          cardValues[0] += 1;\n          cardValues[1] += 1;\n        } else {\n          cardValues[0] += 1;\n          cardValues[1] += 11;\n        }\n      } else {\n        cardValues[0] += cardValue;\n        cardValues[1] += cardValue;\n      }\n    }\n    return cardValues;\n  }\n\n\n  // get the possible sums of card in hand.\n  // if any is 21, return true, else return false\n  // only trigger at the initial stage.\n  function check21(uint[2] memory cardValues) private pure returns(bool){\n    if (cardValues[0] == 21 || cardValues[1] == 21) {\n      return true;\n    }\n    return false;\n  }\n\n\n  // check if the player/dealer can still hit cards, if both possible sum in his/her hand > 21\n  // return true, else return false.\n  function checkOver21(uint[2] memory cardValues) private pure returns(bool) {\n    if (cardValues[0] > 21){\n      return true;\n    }\n    return false;\n  }\n\n\n  // start game, only dealer can call.\n  // *** CALLABLE\n  function startGame() public onlyDealer() {\n    require (dealer != address(0) && player != address(0));\n    gameStart = true;\n    defaultCardDeck();\n\n    // send the initial two cards to both\n    uint playerCard1 = hitCard();\n    playerHand.push(playerCard1);\n    uint dealerCard1 = hitCard();\n    dealerHand.push(dealerCard1);\n    uint playerCard2 = hitCard();\n    playerHand.push(playerCard2);\n    uint dealerCard2 = hitCard();\n    dealerHand.push(dealerCard2);\n\n    // check if cardValue of player is == 21\n    uint[2] memory playerCardValues = getSumInHand(playerHand);\n    if (check21(playerCardValues) == true) {\n      // transfer players balance * 2\n      gameStart = false;\n    }\n    // increase bet size\n    // check if cardValue of dealerCard2 is == 1, if yes, insurance\n    // check if cardValue of playerCard1 == playerCard2, if yes, split. This part is hard because i cant figure out a way to store multiple hands of a single player.\n  }\n\n\n  // a player can only quit a game if the game is not on.\n  // CALLABLE ***\n  function quitGame() public onlyPlayer {\n    require(gameStart == false);\n    player = address(0);\n  }\n\n  function getDealerHand() external returns(uint[] memory){\n    return dealerHand;\n  }\n\n  function getPlayerHand() external returns(uint[] memory){\n    return playerHand;\n  }\n\n   \n\n\n  // MODIFIERs\n\n  modifier onlyPlayer() {\n    require (msg.sender == player);\n    _;\n  }\n\n\n  modifier onlyDealer() {\n    require (msg.sender == dealer);\n    _;\n  }\n \n}\n\n\n\n\n\n// END OF THE FILE\n",
  "sourcePath": "/Users/tedwu/Desktop/ 4/Blackjack/Blackjack_frontend/truffle/contracts/BlackJackV2.sol",
  "compiler": {
    "name": "solc",
    "version": "0.8.13+commit.abaa5c0e.Emscripten.clang"
  },
  "schemaVersion": "3.4.7",
  "updatedAt": "2022-05-24T04:18:40.852Z",
  "networkType": "ethereum",
  "devdoc": {
    "kind": "dev",
    "methods": {},
    "version": 1
  },
  "userdoc": {
    "kind": "user",
    "methods": {},
    "version": 1
  }
}