{
  "contractName": "BlackJackV2",
  "abi": [
    {
      "inputs": [
        {
          "internalType": "uint256",
          "name": "_minBet",
          "type": "uint256"
        },
        {
          "internalType": "uint256",
          "name": "_maxBet",
          "type": "uint256"
        }
      ],
      "stateMutability": "payable",
      "type": "constructor",
      "payable": true
    },
    {
      "anonymous": false,
      "inputs": [
        {
          "indexed": false,
          "internalType": "address",
          "name": "_player",
          "type": "address"
        },
        {
          "indexed": false,
          "internalType": "uint256",
          "name": "_dealerBalance",
          "type": "uint256"
        },
        {
          "indexed": false,
          "internalType": "uint256",
          "name": "_playerBalance",
          "type": "uint256"
        }
      ],
      "name": "JoinGame",
      "type": "event"
    },
    {
      "anonymous": false,
      "inputs": [
        {
          "indexed": false,
          "internalType": "uint256[]",
          "name": "_playerHand",
          "type": "uint256[]"
        },
        {
          "indexed": false,
          "internalType": "uint256[]",
          "name": "_dealerHand",
          "type": "uint256[]"
        },
        {
          "indexed": false,
          "internalType": "uint256",
          "name": "_dealerBalance",
          "type": "uint256"
        },
        {
          "indexed": false,
          "internalType": "uint256",
          "name": "_playerBalance",
          "type": "uint256"
        },
        {
          "indexed": false,
          "internalType": "bool",
          "name": "_playerWin",
          "type": "bool"
        },
        {
          "indexed": false,
          "internalType": "bool",
          "name": "_gameStart",
          "type": "bool"
        }
      ],
      "name": "PlayerHit",
      "type": "event"
    },
    {
      "anonymous": false,
      "inputs": [
        {
          "indexed": false,
          "internalType": "uint256[]",
          "name": "_playerHand",
          "type": "uint256[]"
        },
        {
          "indexed": false,
          "internalType": "uint256[]",
          "name": "_dealerHand",
          "type": "uint256[]"
        },
        {
          "indexed": false,
          "internalType": "uint256",
          "name": "_dealerBalance",
          "type": "uint256"
        },
        {
          "indexed": false,
          "internalType": "uint256",
          "name": "_playerBalance",
          "type": "uint256"
        },
        {
          "indexed": false,
          "internalType": "bool",
          "name": "_playerWin",
          "type": "bool"
        },
        {
          "indexed": false,
          "internalType": "bool",
          "name": "_gameStart",
          "type": "bool"
        }
      ],
      "name": "PlayerStand",
      "type": "event"
    },
    {
      "anonymous": false,
      "inputs": [
        {
          "indexed": false,
          "internalType": "bool",
          "name": "_gameStart",
          "type": "bool"
        },
        {
          "indexed": false,
          "internalType": "uint256",
          "name": "_dealerBalance",
          "type": "uint256"
        },
        {
          "indexed": false,
          "internalType": "uint256",
          "name": "_playerBalance",
          "type": "uint256"
        },
        {
          "indexed": false,
          "internalType": "bool",
          "name": "_playerWin",
          "type": "bool"
        }
      ],
      "name": "StartGame",
      "type": "event"
    },
    {
      "inputs": [],
      "name": "dealer",
      "outputs": [
        {
          "internalType": "address",
          "name": "",
          "type": "address"
        }
      ],
      "stateMutability": "view",
      "type": "function",
      "constant": true
    },
    {
      "inputs": [],
      "name": "dealerBalance",
      "outputs": [
        {
          "internalType": "uint256",
          "name": "",
          "type": "uint256"
        }
      ],
      "stateMutability": "view",
      "type": "function",
      "constant": true
    },
    {
      "inputs": [],
      "name": "gameStart",
      "outputs": [
        {
          "internalType": "bool",
          "name": "",
          "type": "bool"
        }
      ],
      "stateMutability": "view",
      "type": "function",
      "constant": true
    },
    {
      "inputs": [],
      "name": "maxBet",
      "outputs": [
        {
          "internalType": "uint256",
          "name": "",
          "type": "uint256"
        }
      ],
      "stateMutability": "view",
      "type": "function",
      "constant": true
    },
    {
      "inputs": [],
      "name": "minBet",
      "outputs": [
        {
          "internalType": "uint256",
          "name": "",
          "type": "uint256"
        }
      ],
      "stateMutability": "view",
      "type": "function",
      "constant": true
    },
    {
      "inputs": [],
      "name": "player",
      "outputs": [
        {
          "internalType": "address",
          "name": "",
          "type": "address"
        }
      ],
      "stateMutability": "view",
      "type": "function",
      "constant": true
    },
    {
      "inputs": [],
      "name": "playerBalance",
      "outputs": [
        {
          "internalType": "uint256",
          "name": "",
          "type": "uint256"
        }
      ],
      "stateMutability": "view",
      "type": "function",
      "constant": true
    },
    {
      "inputs": [],
      "name": "playerWin",
      "outputs": [
        {
          "internalType": "bool",
          "name": "",
          "type": "bool"
        }
      ],
      "stateMutability": "view",
      "type": "function",
      "constant": true
    },
    {
      "inputs": [],
      "name": "joinGame",
      "outputs": [],
      "stateMutability": "payable",
      "type": "function",
      "payable": true
    },
    {
      "inputs": [],
      "name": "playerHitCard",
      "outputs": [],
      "stateMutability": "nonpayable",
      "type": "function"
    },
    {
      "inputs": [],
      "name": "playerStand",
      "outputs": [],
      "stateMutability": "nonpayable",
      "type": "function"
    },
    {
      "inputs": [],
      "name": "startGame",
      "outputs": [],
      "stateMutability": "nonpayable",
      "type": "function"
    },
    {
      "inputs": [],
      "name": "withdraw",
      "outputs": [],
      "stateMutability": "nonpayable",
      "type": "function"
    },
    {
      "inputs": [],
      "name": "quitGame",
      "outputs": [],
      "stateMutability": "nonpayable",
      "type": "function"
    },
    {
      "inputs": [],
      "name": "getDealerHand",
      "outputs": [
        {
          "internalType": "uint256[]",
          "name": "",
          "type": "uint256[]"
        }
      ],
      "stateMutability": "view",
      "type": "function",
      "constant": true
    },
    {
      "inputs": [],
      "name": "getPlayerHand",
      "outputs": [
        {
          "internalType": "uint256[]",
          "name": "",
          "type": "uint256[]"
        }
      ],
      "stateMutability": "view",
      "type": "function",
      "constant": true
    }
  ],
  "bytecode": "0x608060405260008060006101000a81548160ff02191690831515021790555060008060016101000a81548160ff021916908315150217905550609c67ffffffffffffffff811115620000565762000055620001e5565b5b604051908082528060200260200182016040528015620000855781602001602082028036833780820191505090505b50600990805190602001906200009d92919062000174565b5060405162001ff138038062001ff18339818101604052810190620000c3919062000254565b600a81620000d29190620002ca565b341162000116576040517f08c379a00000000000000000000000000000000000000000000000000000000081526004016200010d906200038c565b60405180910390fd5b816007819055508060088190555033600060026101000a81548173ffffffffffffffffffffffffffffffffffffffff021916908373ffffffffffffffffffffffffffffffffffffffff160217905550346002819055505050620003ae565b828054828255906000526020600020908101928215620001b3579160200282015b82811115620001b257825182559160200191906001019062000195565b5b509050620001c29190620001c6565b5090565b5b80821115620001e1576000816000905550600101620001c7565b5090565b7f4e487b7100000000000000000000000000000000000000000000000000000000600052604160045260246000fd5b600080fd5b6000819050919050565b6200022e8162000219565b81146200023a57600080fd5b50565b6000815190506200024e8162000223565b92915050565b600080604083850312156200026e576200026d62000214565b5b60006200027e858286016200023d565b925050602062000291858286016200023d565b9150509250929050565b7f4e487b7100000000000000000000000000000000000000000000000000000000600052601160045260246000fd5b6000620002d78262000219565b9150620002e48362000219565b9250817fffffffffffffffffffffffffffffffffffffffffffffffffffffffffffffffff048311821515161562000320576200031f6200029b565b5b828202905092915050565b600082825260208201905092915050565b7f596f752070726f7669646520746f6f206c6974746c6520626574000000000000600082015250565b600062000374601a836200032b565b915062000381826200033c565b602082019050919050565b60006020820190508181036000830152620003a78162000365565b9050919050565b611c3380620003be6000396000f3fe6080604052600436106100f35760003560e01c80639619367d1161008a578063c9f09d3811610059578063c9f09d38146102c0578063d4f77b1c146102d7578063d65ab5f2146102e1578063fffae4fa146102f8576100f3565b80639619367d1461023c5780639de2ee21146102675780639fda4d0514610292578063b4a60512146102a9576100f3565b806348db5f89116100c657806348db5f89146101905780635e5bad7c146101bb57806364351403146101e6578063651f066a14610211576100f3565b80631ab9964c146100f85780632e5b2168146101235780633218b99d1461014e5780633ccfd60b14610179575b600080fd5b34801561010457600080fd5b5061010d610323565b60405161011a9190611609565b60405180910390f35b34801561012f57600080fd5b5061013861037b565b604051610145919061163a565b60405180910390f35b34801561015a57600080fd5b50610163610381565b6040516101709190611670565b60405180910390f35b34801561018557600080fd5b5061018e610392565b005b34801561019c57600080fd5b506101a5610535565b6040516101b291906116cc565b60405180910390f35b3480156101c757600080fd5b506101d061055b565b6040516101dd919061163a565b60405180910390f35b3480156101f257600080fd5b506101fb610561565b6040516102089190611670565b60405180910390f35b34801561021d57600080fd5b50610226610574565b604051610233919061163a565b60405180910390f35b34801561024857600080fd5b5061025161057a565b60405161025e919061163a565b60405180910390f35b34801561027357600080fd5b5061027c610580565b60405161028991906116cc565b60405180910390f35b34801561029e57600080fd5b506102a76105a6565b005b3480156102b557600080fd5b506102be610799565b005b3480156102cc57600080fd5b506102d561086f565b005b6102df610bbc565b005b3480156102ed57600080fd5b506102f6610d31565b005b34801561030457600080fd5b5061030d611046565b60405161031a9190611609565b60405180910390f35b6060600580548060200260200160405190810160405280929190818152602001828054801561037157602002820191906000526020600020905b81548152602001906001019080831161035d575b5050505050905090565b60085481565b60008054906101000a900460ff1681565b600160009054906101000a900473ffffffffffffffffffffffffffffffffffffffff1673ffffffffffffffffffffffffffffffffffffffff163373ffffffffffffffffffffffffffffffffffffffff16148061043b5750600060029054906101000a900473ffffffffffffffffffffffffffffffffffffffff1673ffffffffffffffffffffffffffffffffffffffff163373ffffffffffffffffffffffffffffffffffffffff16145b61044457600080fd5b6000600160009054906101000a900473ffffffffffffffffffffffffffffffffffffffff1673ffffffffffffffffffffffffffffffffffffffff163373ffffffffffffffffffffffffffffffffffffffff16036104ad57600354905060006003819055506104bb565b600254905060006002819055505b60003373ffffffffffffffffffffffffffffffffffffffff16826040516104e190611718565b60006040518083038185875af1925050503d806000811461051e576040519150601f19603f3d011682016040523d82523d6000602084013e610523565b606091505b505090508061053157600080fd5b5050565b600160009054906101000a900473ffffffffffffffffffffffffffffffffffffffff1681565b60025481565b600060019054906101000a900460ff1681565b60035481565b60075481565b600060029054906101000a900473ffffffffffffffffffffffffffffffffffffffff1681565b600160009054906101000a900473ffffffffffffffffffffffffffffffffffffffff1673ffffffffffffffffffffffffffffffffffffffff163373ffffffffffffffffffffffffffffffffffffffff161461060057600080fd5b6001151560008054906101000a900460ff1615151461061e57600080fd5b600061062861109e565b90506005819080600181540180825580915050600190039060005260206000200160009091909190915055600061065f600561113e565b90506001151561066e8261138b565b1515036106e05760008060006101000a81548160ff0219169083151502179055506001600060016101000a81548160ff021916908315150217905550600354600260008282546106be919061175c565b925050819055506002600360008282546106d89190611790565b925050819055505b600115156106ed826113e4565b1515036107325760008060006101000a81548160ff0219169083151502179055506003546002600082825461072291906117ea565b9250508190555060006003819055505b7f408abf3365e3f98de443044d7fefede0a576d7d5a5af40d4c2f6d70e469f0b326005600460025460035460008054906101000a900460ff16600060019054906101000a900460ff1660405161078d96959493929190611916565b60405180910390a15050565b600160009054906101000a900473ffffffffffffffffffffffffffffffffffffffff1673ffffffffffffffffffffffffffffffffffffffff163373ffffffffffffffffffffffffffffffffffffffff16146107f357600080fd5b6000151560008054906101000a900460ff1615151461081157600080fd5b60008060016101000a81548160ff0219169083151502179055506000600160006101000a81548173ffffffffffffffffffffffffffffffffffffffff021916908373ffffffffffffffffffffffffffffffffffffffff160217905550565b600160009054906101000a900473ffffffffffffffffffffffffffffffffffffffff1673ffffffffffffffffffffffffffffffffffffffff163373ffffffffffffffffffffffffffffffffffffffff1614806109185750600060029054906101000a900473ffffffffffffffffffffffffffffffffffffffff1673ffffffffffffffffffffffffffffffffffffffff163373ffffffffffffffffffffffffffffffffffffffff16145b61092157600080fd5b6001151560008054906101000a900460ff1615151461093f57600080fd5b600061094b600461113e565b905060008160016002811061096357610962611985565b5b602002015190505b60118110156109f257600461097e61109e565b90806001815401808255809150506001900390600052602060002001600090919091909150556109ae600461113e565b91506015826001600281106109c6576109c5611985565b5b602002015111156109ed57816000600281106109e5576109e4611985565b5b602002015190505b61096b565b6015811115610a4c576001600060016101000a81548160ff02191690831515021790555060035460026000828254610a2a919061175c565b92505081905550600260036000828254610a449190611790565b925050819055505b6000610a58600561113e565b90506000601582600160028110610a7257610a71611985565b5b60200201511115610a9d5781600060028110610a9157610a90611985565b5b60200201519050610ab9565b81600160028110610ab157610ab0611985565b5b602002015190505b808310610ae85760035460026000828254610ad491906117ea565b925050819055506000600381905550610b39565b6001600060016101000a81548160ff02191690831515021790555060035460026000828254610b17919061175c565b92505081905550600260036000828254610b319190611790565b925050819055505b60008060006101000a81548160ff0219169083151502179055507fe37075f98d8d4f813c324a82d8a141a893da12024a27d45435aa96bcb8361f116005600460025460035460008054906101000a900460ff16600060019054906101000a900460ff16604051610bae96959493929190611916565b60405180910390a150505050565b600073ffffffffffffffffffffffffffffffffffffffff16600160009054906101000a900473ffffffffffffffffffffffffffffffffffffffff1673ffffffffffffffffffffffffffffffffffffffff1614610c1757600080fd5b6007543410158015610c2b57506008543411155b610c3457600080fd5b6000600a34610c4391906119e3565b14610c4d57600080fd5b600a601934610c5c9190611790565b610c669190611a14565b6002541015610c7457600080fd5b33600160006101000a81548173ffffffffffffffffffffffffffffffffffffffff021916908373ffffffffffffffffffffffffffffffffffffffff1602179055503460036000828254610cc791906117ea565b925050819055507f5a934d24bba5b820aa4f2e2d6b8723811138f8060f69d46ef34d80fdd531ab7c600160009054906101000a900473ffffffffffffffffffffffffffffffffffffffff16600254600354604051610d2793929190611a45565b60405180910390a1565b600060029054906101000a900473ffffffffffffffffffffffffffffffffffffffff1673ffffffffffffffffffffffffffffffffffffffff163373ffffffffffffffffffffffffffffffffffffffff1614610d8b57600080fd5b600073ffffffffffffffffffffffffffffffffffffffff16600060029054906101000a900473ffffffffffffffffffffffffffffffffffffffff1673ffffffffffffffffffffffffffffffffffffffff1614158015610e395750600073ffffffffffffffffffffffffffffffffffffffff16600160009054906101000a900473ffffffffffffffffffffffffffffffffffffffff1673ffffffffffffffffffffffffffffffffffffffff1614155b610e4257600080fd5b60016000806101000a81548160ff021916908315150217905550610e6461141a565b6000610e6e61109e565b905060058190806001815401808255809150506001900390600052602060002001600090919091909150556000610ea361109e565b905060048190806001815401808255809150506001900390600052602060002001600090919091909150556000610ed861109e565b905060058190806001815401808255809150506001900390600052602060002001600090919091909150556000610f0d61109e565b905060048190806001815401808255809150506001900390600052602060002001600090919091909150556000610f44600561113e565b905060011515610f538261138b565b151503610fe25760008060006101000a81548160ff0219169083151502179055506001600060016101000a81548160ff0219169083151502179055506000600a6019600354610fa29190611790565b610fac9190611a14565b90508060026000828254610fc0919061175c565b925050819055508060036000828254610fd991906117ea565b92505081905550505b7f7994c7a1881d889f99f49d26bd56a9a7d01be146098dd21c4e48eba4db719e0f60008054906101000a900460ff16600254600354600060019054906101000a900460ff166040516110379493929190611a7c565b60405180910390a15050505050565b6060600480548060200260200160405190810160405280929190818152602001828054801561109457602002820191906000526020600020905b815481526020019060010190808311611080575b5050505050905090565b600080609c6110ab611464565b6110b591906119e3565b90505b6000600982815481106110ce576110cd611985565b5b9060005260206000200154036110f957609c6110e8611464565b6110f291906119e3565b90506110b8565b60006009828154811061110f5761110e611985565b5b906000526020600020018190555060016006600082825461113091906117ea565b925050819055508091505090565b61114661151f565b60006040518060400160405280600081526020016000815250905060005b838054905081101561138157600084828154811061118557611184611985565b5b9060005260206000200154905060006001600d6034846111a591906119e3565b6111af91906119e3565b6111b991906117ea565b9050600a81111561122557600a846000600281106111da576111d9611985565b5b602002018181516111eb91906117ea565b91508181525050600a8460016002811061120857611207611985565b5b6020020181815161121991906117ea565b9150818152505061136c565b6001810361131057600b8460016002811061124357611242611985565b5b6020020151106112ae5760018460006002811061126357611262611985565b5b6020020181815161127491906117ea565b9150818152505060018460016002811061129157611290611985565b5b602002018181516112a291906117ea565b9150818152505061130b565b6001846000600281106112c4576112c3611985565b5b602002018181516112d591906117ea565b91508181525050600b846001600281106112f2576112f1611985565b5b6020020181815161130391906117ea565b915081815250505b61136b565b808460006002811061132557611324611985565b5b6020020181815161133691906117ea565b91508181525050808460016002811061135257611351611985565b5b6020020181815161136391906117ea565b915081815250505b5b5050808061137990611ac1565b915050611164565b5080915050919050565b60006015826000600281106113a3576113a2611985565b5b602002015114806113cc57506015826001600281106113c5576113c4611985565b5b6020020151145b156113da57600190506113df565b600090505b919050565b60006015826000600281106113fc576113fb611985565b5b602002015111156114105760019050611415565b600090505b919050565b60005b600980549050811015611461576001600982815481106114405761143f611985565b5b9060005260206000200181905550808061145990611ac1565b91505061141d565b50565b6000804260065460405160200161147c929190611b2a565b6040516020818303038152906040528051906020012060001c9050609c814442600060029054906101000a900473ffffffffffffffffffffffffffffffffffffffff16600160009054906101000a900473ffffffffffffffffffffffffffffffffffffffff166040516020016114f6959493929190611b9e565b6040516020818303038152906040528051906020012060001c61151991906119e3565b91505090565b6040518060400160405280600290602082028036833780820191505090505090565b600081519050919050565b600082825260208201905092915050565b6000819050602082019050919050565b6000819050919050565b6115808161156d565b82525050565b60006115928383611577565b60208301905092915050565b6000602082019050919050565b60006115b682611541565b6115c0818561154c565b93506115cb8361155d565b8060005b838110156115fc5781516115e38882611586565b97506115ee8361159e565b9250506001810190506115cf565b5085935050505092915050565b6000602082019050818103600083015261162381846115ab565b905092915050565b6116348161156d565b82525050565b600060208201905061164f600083018461162b565b92915050565b60008115159050919050565b61166a81611655565b82525050565b60006020820190506116856000830184611661565b92915050565b600073ffffffffffffffffffffffffffffffffffffffff82169050919050565b60006116b68261168b565b9050919050565b6116c6816116ab565b82525050565b60006020820190506116e160008301846116bd565b92915050565b600081905092915050565b50565b60006117026000836116e7565b915061170d826116f2565b600082019050919050565b6000611723826116f5565b9150819050919050565b7f4e487b7100000000000000000000000000000000000000000000000000000000600052601160045260246000fd5b60006117678261156d565b91506117728361156d565b9250828210156117855761178461172d565b5b828203905092915050565b600061179b8261156d565b91506117a68361156d565b9250817fffffffffffffffffffffffffffffffffffffffffffffffffffffffffffffffff04831182151516156117df576117de61172d565b5b828202905092915050565b60006117f58261156d565b91506118008361156d565b9250827fffffffffffffffffffffffffffffffffffffffffffffffffffffffffffffffff038211156118355761183461172d565b5b828201905092915050565b600081549050919050565b60008190508160005260206000209050919050565b60008160001c9050919050565b6000819050919050565b600061188a61188583611860565b61186d565b9050919050565b600061189d8254611877565b9050919050565b6000600182019050919050565b60006118bc82611840565b6118c6818561154c565b93506118d18361184b565b8060005b83811015611909576118e682611891565b6118f08882611586565b97506118fb836118a4565b9250506001810190506118d5565b5085935050505092915050565b600060c082019050818103600083015261193081896118b1565b9050818103602083015261194481886118b1565b9050611953604083018761162b565b611960606083018661162b565b61196d6080830185611661565b61197a60a0830184611661565b979650505050505050565b7f4e487b7100000000000000000000000000000000000000000000000000000000600052603260045260246000fd5b7f4e487b7100000000000000000000000000000000000000000000000000000000600052601260045260246000fd5b60006119ee8261156d565b91506119f98361156d565b925082611a0957611a086119b4565b5b828206905092915050565b6000611a1f8261156d565b9150611a2a8361156d565b925082611a3a57611a396119b4565b5b828204905092915050565b6000606082019050611a5a60008301866116bd565b611a67602083018561162b565b611a74604083018461162b565b949350505050565b6000608082019050611a916000830187611661565b611a9e602083018661162b565b611aab604083018561162b565b611ab86060830184611661565b95945050505050565b6000611acc8261156d565b91507fffffffffffffffffffffffffffffffffffffffffffffffffffffffffffffffff8203611afe57611afd61172d565b5b600182019050919050565b6000819050919050565b611b24611b1f8261156d565b611b09565b82525050565b6000611b368285611b13565b602082019150611b468284611b13565b6020820191508190509392505050565b60008160601b9050919050565b6000611b6e82611b56565b9050919050565b6000611b8082611b63565b9050919050565b611b98611b93826116ab565b611b75565b82525050565b6000611baa8288611b13565b602082019150611bba8287611b13565b602082019150611bca8286611b13565b602082019150611bda8285611b87565b601482019150611bea8284611b87565b601482019150819050969550505050505056fea2646970667358221220b73e4170bbd72c63cb8c862deee8970d1673b294d60a5739d0257570e39667d164736f6c634300080d0033",
  "immutableReferences": {},
  "source": "// SPDX-License-Identifier: MIT\npragma solidity ^0.8.13;\n\n//import \"hardhat/console.sol\";\n\ncontract BlackJackV2 {\n\n  bool public gameStart = false;\n  bool public playerWin = false;\n\n  address public dealer;\n  address public player;\n\n  uint public dealerBalance;\n  uint public playerBalance;\n\n  uint[] dealerHand; // store the card indexes in dealer's hand\n  uint[] playerHand; // store the card indexes in player's hand\n  uint cardDrawn;\n\n  uint public minBet;\n  uint public maxBet; // minBet and maxBet for each round, defined by dealer when he deploy the contract.\n\n  // the whole deck of the game, cards are drawn in this deck.\n  // length = 52 * 3, meaning we are using 3 decks of cards.\n  // this is to store whether a specifc card still exists.\n  uint[] deck = new uint[](52*3);\n\n  //events\n  event JoinGame(address _player, uint _dealerBalance, uint _playerBalance );\n  event StartGame(bool _gameStart,uint _dealerBalance, uint _playerBalance, bool _playerWin);\n  event PlayerHit(uint[] _playerHand, uint[] _dealerHand,uint _dealerBalance, uint _playerBalance, bool _playerWin, bool _gameStart);\n  event PlayerStand(uint[] _playerHand, uint[] _dealerHand,uint _dealerBalance, uint _playerBalance, bool _playerWin, bool _gameStart);\n\n  // CONSTRUCTOR\n  constructor(uint _minBet, uint _maxBet) payable {\n\n    require(msg.value > _maxBet * 10, \"You provide too little bet\");\n    minBet = _minBet;\n    maxBet = _maxBet;\n    dealer = msg.sender;\n    dealerBalance = msg.value;\n\n  }\n\n\n  // change the number of cards as 1,\n  // deck from [0, 0, 0, ... , 0]\n  //        to [1, 1, 1, ... , 1].\n  function defaultCardDeck() private {\n    for (uint i = 0; i < deck.length; i++) {\n      deck[i] = 1;\n    }\n  }\n\n\n  // generate a random number, we need to figure out a better way maybe?\n  // we need to ensure the random number cannot be guessed given the params\n  // in keccak within a block mining round time\n  function randomNumber() private view returns(uint) {\n    uint hashCardDrawn = uint(keccak256(abi.encodePacked(block.timestamp, cardDrawn)));\n    return uint(keccak256(abi.encodePacked(hashCardDrawn, block.difficulty, block.timestamp, dealer, player))) % (52 * 3);\n  }\n\n\n  // anyone can join this game, once (s)he's in, the player can only be him/her.\n  // only admit players to join in if no other player is in the game.\n  // *** CALLABLE\n  function joinGame() public payable {\n    //console.log(minBet);\n    //console.log(maxBet);\n    require (player == address(0));\n    require (msg.value >= minBet && msg.value <= maxBet);\n    require (msg.value % 10 == 0);\n    require (dealerBalance >= (msg.value*25)/10);\n    player = msg.sender;\n    playerBalance += msg.value;\n    emit JoinGame(player,dealerBalance,playerBalance);\n\n  }\n\n  // *** CALLABLE\n  // function putBet() public payable onlyPlayer {\n  //   require (msg.value >= minBet && msg.value <= maxBet);\n  //   require (msg.value % 10 == 0);\n  //   playerBalance += msg.value;\n  // }\n\n\n  // randomly draw a card from deck, if the card drawn is drawn before, draw again,\n  // if the card drawn is never drawn before, set deck[index] => 0.\n  // *** CALLABLE\n  function hitCard() private returns(uint) {\n    uint randomCardIndex = randomNumber() % (52 * 3);\n    while (deck[randomCardIndex] == 0) {\n      randomCardIndex = randomNumber() % (52 * 3);\n    }\n    deck[randomCardIndex] = 0;\n    cardDrawn += 1;\n    return randomCardIndex;\n  }\n\n  // *** CALLABLE\n  function playerHitCard() public onlyPlayer {\n    require (gameStart == true);\n    uint newCard = hitCard();\n    playerHand.push(newCard);\n    uint[2] memory playerCardValues = getSumInHand(playerHand);\n    if (check21(playerCardValues) == true) {\n      // transfer the balance to the player\n      gameStart = false;\n      playerWin = true;\n      dealerBalance -= playerBalance;\n      playerBalance *= 2;\n    }\n    if (checkOver21(playerCardValues) == true) {\n      // transfer the balance to the dealer\n      gameStart = false;\n      dealerBalance += playerBalance;\n      playerBalance = 0;\n    }\n\n    emit PlayerHit(playerHand, dealerHand,dealerBalance,playerBalance,gameStart,playerWin);\n  }\n\n  // *** CALLABLE\n  function playerStand() public {\n    // dealer call when time out\n    require (msg.sender == player || msg.sender == dealer);\n    require (gameStart == true);\n    uint[2] memory dealerCardValues = getSumInHand(dealerHand);\n    uint dealerLargerValue = dealerCardValues[1];\n    while (dealerLargerValue < 17) {\n      dealerHand.push(hitCard());\n      dealerCardValues = getSumInHand(dealerHand);\n      if (dealerCardValues[1] > 21) {\n        dealerLargerValue = dealerCardValues[0];\n      }\n      \n    }\n    if (dealerLargerValue > 21) {\n      playerWin = true;\n      dealerBalance -= playerBalance;\n      playerBalance *= 2;      \n      // transfer money to player\n    }\n    uint[2] memory playerCardValue = getSumInHand(playerHand);\n    uint playerLargerValue = 0;\n    if (playerCardValue[1] > 21) {\n      playerLargerValue = playerCardValue[0];\n    } else {\n      playerLargerValue = playerCardValue[1];\n    }\n    if (dealerLargerValue >= playerLargerValue) {\n      // deduct player balance, add to dealer's balance;\n      dealerBalance += playerBalance;\n      playerBalance = 0;\n    } else {\n      playerWin = true;\n      // transfer money to player, same amount as player's balance\n      dealerBalance -= playerBalance;\n      playerBalance *= 2;\n    }\n    gameStart = false;\n    emit PlayerStand(playerHand, dealerHand, dealerBalance,playerBalance,gameStart,playerWin);\n  }\n\n\n  // returns the sum of the card values in player/dealers hand\n  // array because we at most have two values in hand (considering Ace)\n  // for example,\n  // cardInHand = [A, J] => [11, 21]\n  // cardInHand = [A, A] => [2, 12]\n  // cardInHand = [A, A, A] => [3, 13]\n  // cardInHand = [1, 2, 3] => [6, 6]\n  // cardInHand = [J, K, Q] => [30, 30]\n  // cardInHand = [A, A, 10] => [12, 22]\n  function getSumInHand(uint[] storage hand) private view returns(uint[2] memory) {\n    uint[2] memory cardValues = [uint(0), uint(0)];\n    for (uint i = 0; i < hand.length; i++) {\n      uint cardIndex = hand[i];\n      uint cardValue = cardIndex % 52 % 13 + 1;\n      if (cardValue > 10) {\n        cardValues[0] += 10;\n        cardValues[1] += 10;\n      } else if (cardValue == 1) {\n        if (cardValues[1] >= 11) {\n          cardValues[0] += 1;\n          cardValues[1] += 1;\n        } else {\n          cardValues[0] += 1;\n          cardValues[1] += 11;\n        }\n      } else {\n        cardValues[0] += cardValue;\n        cardValues[1] += cardValue;\n      }\n    }\n    return cardValues;\n  }\n\n\n  // get the possible sums of card in hand.\n  // if any is 21, return true, else return false\n  // only trigger at the initial stage.\n  function check21(uint[2] memory cardValues) private pure returns(bool){\n    if (cardValues[0] == 21 || cardValues[1] == 21) {\n      return true;\n    }\n    return false;\n  }\n\n\n  // check if the player/dealer can still hit cards, if both possible sum in his/her hand > 21\n  // return true, else return false.\n  function checkOver21(uint[2] memory cardValues) private pure returns(bool) {\n    if (cardValues[0] > 21){\n      return true;\n    }\n    return false;\n  }\n\n\n  // start game, only dealer can call.\n  // *** CALLABLE\n  function startGame() public onlyDealer() {\n    require (dealer != address(0) && player != address(0));\n    gameStart = true;\n    defaultCardDeck();\n\n    // send the initial two cards to both\n    uint playerCard1 = hitCard();\n    playerHand.push(playerCard1);\n    uint dealerCard1 = hitCard();\n    dealerHand.push(dealerCard1);\n    uint playerCard2 = hitCard();\n    playerHand.push(playerCard2);\n    uint dealerCard2 = hitCard();\n    dealerHand.push(dealerCard2);\n\n    \n\n    // check if cardValue of player is == 21\n    uint[2] memory playerCardValues = getSumInHand(playerHand);\n    if (check21(playerCardValues) == true) {\n      // transfer players balance * 2\n      gameStart = false;\n      playerWin = true;\n      uint winnings = (playerBalance * 25) / 10;\n      dealerBalance -= winnings;\n      playerBalance += winnings;\n    }\n\n    emit StartGame(gameStart,dealerBalance,playerBalance,playerWin);\n    // increase bet size\n    // check if cardValue of dealerCard2 is == 1, if yes, insurance\n    // check if cardValue of playerCard1 == playerCard2, if yes, split. This part is hard because i cant figure out a way to store multiple hands of a single player.\n  }\n\n  function withdraw() public {\n    require (msg.sender == player || msg.sender == dealer);\n    uint amount;\n    if (msg.sender == player) {\n      amount = playerBalance;\n      playerBalance = 0;\n    } else {\n      amount = dealerBalance;\n      dealerBalance = 0;\n    }\n    (bool sent, ) = msg.sender.call{value: amount}(\"\");\n    require (sent);\n  }\n  // a player can only quit a game if the game is not on.\n  // CALLABLE ***\n  function quitGame() public onlyPlayer {\n    require(gameStart == false);\n    playerWin = false;\n    player = address(0);\n  }\n\n  function getDealerHand() external view returns(uint[] memory){\n    return dealerHand;\n  }\n\n  function getPlayerHand() external view returns(uint[] memory){\n    return playerHand;\n  }\n\n   \n\n\n  // MODIFIERs\n\n  modifier onlyPlayer() {\n    require (msg.sender == player);\n    _;\n  }\n\n\n  modifier onlyDealer() {\n    require (msg.sender == dealer);\n    _;\n  }\n \n}\n\n\n\n\n\n// END OF THE FILE\n",
  "sourcePath": "/Users/tedwu/Desktop/ 4/Blackjack/Blackjack_frontend/truffle/contracts/BlackJackV2.sol",
  "compiler": {
    "name": "solc",
    "version": "0.8.13+commit.abaa5c0e.Emscripten.clang"
  },
  "schemaVersion": "3.4.7",
  "updatedAt": "2022-05-26T06:59:19.594Z",
  "networkType": "ethereum",
  "devdoc": {
    "kind": "dev",
    "methods": {},
    "version": 1
  },
  "userdoc": {
    "kind": "user",
    "methods": {},
    "version": 1
  }
}