{
  "contractName": "BlackJackV2",
  "abi": [
    {
      "inputs": [
        {
          "internalType": "uint256",
          "name": "_minBet",
          "type": "uint256"
        },
        {
          "internalType": "uint256",
          "name": "_maxBet",
          "type": "uint256"
        }
      ],
      "stateMutability": "payable",
      "type": "constructor",
      "payable": true
    },
    {
      "inputs": [],
      "name": "dealer",
      "outputs": [
        {
          "internalType": "address",
          "name": "",
          "type": "address"
        }
      ],
      "stateMutability": "view",
      "type": "function",
      "constant": true
    },
    {
      "inputs": [],
      "name": "dealerBalance",
      "outputs": [
        {
          "internalType": "uint256",
          "name": "",
          "type": "uint256"
        }
      ],
      "stateMutability": "view",
      "type": "function",
      "constant": true
    },
    {
      "inputs": [
        {
          "internalType": "uint256",
          "name": "",
          "type": "uint256"
        }
      ],
      "name": "dealerHand",
      "outputs": [
        {
          "internalType": "uint256",
          "name": "",
          "type": "uint256"
        }
      ],
      "stateMutability": "view",
      "type": "function",
      "constant": true
    },
    {
      "inputs": [],
      "name": "maxBet",
      "outputs": [
        {
          "internalType": "uint256",
          "name": "",
          "type": "uint256"
        }
      ],
      "stateMutability": "view",
      "type": "function",
      "constant": true
    },
    {
      "inputs": [],
      "name": "minBet",
      "outputs": [
        {
          "internalType": "uint256",
          "name": "",
          "type": "uint256"
        }
      ],
      "stateMutability": "view",
      "type": "function",
      "constant": true
    },
    {
      "inputs": [],
      "name": "player",
      "outputs": [
        {
          "internalType": "address",
          "name": "",
          "type": "address"
        }
      ],
      "stateMutability": "view",
      "type": "function",
      "constant": true
    },
    {
      "inputs": [],
      "name": "playerBalance",
      "outputs": [
        {
          "internalType": "uint256",
          "name": "",
          "type": "uint256"
        }
      ],
      "stateMutability": "view",
      "type": "function",
      "constant": true
    },
    {
      "inputs": [
        {
          "internalType": "uint256",
          "name": "",
          "type": "uint256"
        }
      ],
      "name": "playerHand",
      "outputs": [
        {
          "internalType": "uint256",
          "name": "",
          "type": "uint256"
        }
      ],
      "stateMutability": "view",
      "type": "function",
      "constant": true
    },
    {
      "inputs": [],
      "name": "joinGame",
      "outputs": [],
      "stateMutability": "payable",
      "type": "function",
      "payable": true
    },
    {
      "inputs": [],
      "name": "playerHitCard",
      "outputs": [],
      "stateMutability": "nonpayable",
      "type": "function"
    },
    {
      "inputs": [],
      "name": "playerStand",
      "outputs": [],
      "stateMutability": "nonpayable",
      "type": "function"
    },
    {
      "inputs": [],
      "name": "startGame",
      "outputs": [],
      "stateMutability": "nonpayable",
      "type": "function"
    },
    {
      "inputs": [],
      "name": "quitGame",
      "outputs": [],
      "stateMutability": "nonpayable",
      "type": "function"
    }
  ],
  "bytecode": "0x608060405260008060006101000a81548160ff021916908315150217905550609c67ffffffffffffffff8111156200003c576200003b620001cb565b5b6040519080825280602002602001820160405280156200006b5781602001602082028036833780820191505090505b5060089080519060200190620000839291906200015a565b50604051620015a6380380620015a68339818101604052810190620000a991906200023a565b600a81620000b89190620002b0565b3411620000fc576040517f08c379a0000000000000000000000000000000000000000000000000000000008152600401620000f39062000372565b60405180910390fd5b816006819055508060078190555033600060016101000a81548173ffffffffffffffffffffffffffffffffffffffff021916908373ffffffffffffffffffffffffffffffffffffffff16021790555034600281905550505062000394565b82805482825590600052602060002090810192821562000199579160200282015b82811115620001985782518255916020019190600101906200017b565b5b509050620001a89190620001ac565b5090565b5b80821115620001c7576000816000905550600101620001ad565b5090565b7f4e487b7100000000000000000000000000000000000000000000000000000000600052604160045260246000fd5b600080fd5b6000819050919050565b6200021481620001ff565b81146200022057600080fd5b50565b600081519050620002348162000209565b92915050565b60008060408385031215620002545762000253620001fa565b5b6000620002648582860162000223565b9250506020620002778582860162000223565b9150509250929050565b7f4e487b7100000000000000000000000000000000000000000000000000000000600052601160045260246000fd5b6000620002bd82620001ff565b9150620002ca83620001ff565b9250817fffffffffffffffffffffffffffffffffffffffffffffffffffffffffffffffff048311821515161562000306576200030562000281565b5b828202905092915050565b600082825260208201905092915050565b7f596f752070726f7669646520746f6f206c6974746c6520626574000000000000600082015250565b60006200035a601a8362000311565b9150620003678262000322565b602082019050919050565b600060208201905081810360008301526200038d816200034b565b9050919050565b61120280620003a46000396000f3fe6080604052600436106100c25760003560e01c80639619367d1161007f578063b4a6051211610059578063b4a605121461025a578063c9f09d3814610271578063d4f77b1c14610288578063d65ab5f214610292576100c2565b80639619367d146101ed5780639de2ee21146102185780639fda4d0514610243576100c2565b80632e5b2168146100c757806348db5f89146100f25780635e5bad7c1461011d578063641a124214610148578063651f066a1461018557806387f7b65f146101b0575b600080fd5b3480156100d357600080fd5b506100dc6102a9565b6040516100e99190610ee4565b60405180910390f35b3480156100fe57600080fd5b506101076102af565b6040516101149190610f40565b60405180910390f35b34801561012957600080fd5b506101326102d5565b60405161013f9190610ee4565b60405180910390f35b34801561015457600080fd5b5061016f600480360381019061016a9190610f8c565b6102db565b60405161017c9190610ee4565b60405180910390f35b34801561019157600080fd5b5061019a6102ff565b6040516101a79190610ee4565b60405180910390f35b3480156101bc57600080fd5b506101d760048036038101906101d29190610f8c565b610305565b6040516101e49190610ee4565b60405180910390f35b3480156101f957600080fd5b50610202610329565b60405161020f9190610ee4565b60405180910390f35b34801561022457600080fd5b5061022d61032f565b60405161023a9190610f40565b60405180910390f35b34801561024f57600080fd5b50610258610355565b005b34801561026657600080fd5b5061026f610472565b005b34801561027d57600080fd5b5061028661052e565b005b61029061073e565b005b34801561029e57600080fd5b506102a761082b565b005b60075481565b600160009054906101000a900473ffffffffffffffffffffffffffffffffffffffff1681565b60025481565b600581815481106102eb57600080fd5b906000526020600020016000915090505481565b60035481565b6004818154811061031557600080fd5b906000526020600020016000915090505481565b60065481565b600060019054906101000a900473ffffffffffffffffffffffffffffffffffffffff1681565b600160009054906101000a900473ffffffffffffffffffffffffffffffffffffffff1673ffffffffffffffffffffffffffffffffffffffff163373ffffffffffffffffffffffffffffffffffffffff16146103af57600080fd5b6001151560008054906101000a900460ff161515146103cd57600080fd5b60006103d7610a76565b90506005819080600181540180825580915050600190039060005260206000200160009091909190915055600061040e6005610afc565b90506001151561041d82610d49565b15150361043f5760008060006101000a81548160ff0219169083151502179055505b6001151561044c82610da2565b15150361046e5760008060006101000a81548160ff0219169083151502179055505b5050565b600160009054906101000a900473ffffffffffffffffffffffffffffffffffffffff1673ffffffffffffffffffffffffffffffffffffffff163373ffffffffffffffffffffffffffffffffffffffff16146104cc57600080fd5b6000151560008054906101000a900460ff161515146104ea57600080fd5b6000600160006101000a81548173ffffffffffffffffffffffffffffffffffffffff021916908373ffffffffffffffffffffffffffffffffffffffff160217905550565b600160009054906101000a900473ffffffffffffffffffffffffffffffffffffffff1673ffffffffffffffffffffffffffffffffffffffff163373ffffffffffffffffffffffffffffffffffffffff1614806105d75750600060019054906101000a900473ffffffffffffffffffffffffffffffffffffffff1673ffffffffffffffffffffffffffffffffffffffff163373ffffffffffffffffffffffffffffffffffffffff16145b6105e057600080fd5b6001151560008054906101000a900460ff161515146105fe57600080fd5b600061060a6004610afc565b905060008160016002811061062257610621610fb9565b5b602002015190505b60118110156106b157600461063d610a76565b908060018154018082558091505060019003906000526020600020016000909190919091505561066d6004610afc565b915060158260016002811061068557610684610fb9565b5b602002015111156106ac57816000600281106106a4576106a3610fb9565b5b602002015190505b61062a565b60006106bd6005610afc565b905060006015826001600281106106d7576106d6610fb9565b5b6020020151111561070257816000600281106106f6576106f5610fb9565b5b6020020151905061071e565b8160016002811061071657610715610fb9565b5b602002015190505b60008060006101000a81548160ff02191690831515021790555050505050565b600073ffffffffffffffffffffffffffffffffffffffff16600160009054906101000a900473ffffffffffffffffffffffffffffffffffffffff1673ffffffffffffffffffffffffffffffffffffffff161461079957600080fd5b60065434101580156107ad57506007543411155b6107b657600080fd5b6000600a346107c59190611017565b146107cf57600080fd5b33600160006101000a81548173ffffffffffffffffffffffffffffffffffffffff021916908373ffffffffffffffffffffffffffffffffffffffff16021790555034600360008282546108229190611077565b92505081905550565b600060019054906101000a900473ffffffffffffffffffffffffffffffffffffffff1673ffffffffffffffffffffffffffffffffffffffff163373ffffffffffffffffffffffffffffffffffffffff161461088557600080fd5b600073ffffffffffffffffffffffffffffffffffffffff16600060019054906101000a900473ffffffffffffffffffffffffffffffffffffffff1673ffffffffffffffffffffffffffffffffffffffff16141580156109335750600073ffffffffffffffffffffffffffffffffffffffff16600160009054906101000a900473ffffffffffffffffffffffffffffffffffffffff1673ffffffffffffffffffffffffffffffffffffffff1614155b61093c57600080fd5b60016000806101000a81548160ff02191690831515021790555061095e610dd8565b6000610968610a76565b90506005819080600181540180825580915050600190039060005260206000200160009091909190915055600061099d610a76565b9050600481908060018154018082558091505060019003906000526020600020016000909190919091505560006109d2610a76565b905060058190806001815401808255809150506001900390600052602060002001600090919091909150556000610a07610a76565b905060048190806001815401808255809150506001900390600052602060002001600090919091909150556000610a3e6005610afc565b905060011515610a4d82610d49565b151503610a6f5760008060006101000a81548160ff0219169083151502179055505b5050505050565b600080609c610a83610e22565b610a8d9190611017565b90505b600060088281548110610aa657610aa5610fb9565b5b906000526020600020015403610ad157609c610ac0610e22565b610aca9190611017565b9050610a90565b600060088281548110610ae757610ae6610fb9565b5b90600052602060002001819055508091505090565b610b04610ea9565b60006040518060400160405280600081526020016000815250905060005b8380549050811015610d3f576000848281548110610b4357610b42610fb9565b5b9060005260206000200154905060006001600d603484610b639190611017565b610b6d9190611017565b610b779190611077565b9050600a811115610be357600a84600060028110610b9857610b97610fb9565b5b60200201818151610ba99190611077565b91508181525050600a84600160028110610bc657610bc5610fb9565b5b60200201818151610bd79190611077565b91508181525050610d2a565b60018103610cce57600b84600160028110610c0157610c00610fb9565b5b602002015110610c6c57600184600060028110610c2157610c20610fb9565b5b60200201818151610c329190611077565b91508181525050600184600160028110610c4f57610c4e610fb9565b5b60200201818151610c609190611077565b91508181525050610cc9565b600184600060028110610c8257610c81610fb9565b5b60200201818151610c939190611077565b91508181525050600b84600160028110610cb057610caf610fb9565b5b60200201818151610cc19190611077565b915081815250505b610d29565b8084600060028110610ce357610ce2610fb9565b5b60200201818151610cf49190611077565b915081815250508084600160028110610d1057610d0f610fb9565b5b60200201818151610d219190611077565b915081815250505b5b50508080610d37906110cd565b915050610b22565b5080915050919050565b6000601582600060028110610d6157610d60610fb9565b5b60200201511480610d8a5750601582600160028110610d8357610d82610fb9565b5b6020020151145b15610d985760019050610d9d565b600090505b919050565b6000601582600060028110610dba57610db9610fb9565b5b60200201511115610dce5760019050610dd3565b600090505b919050565b60005b600880549050811015610e1f57600160088281548110610dfe57610dfd610fb9565b5b90600052602060002001819055508080610e17906110cd565b915050610ddb565b50565b6000609c4442600060019054906101000a900473ffffffffffffffffffffffffffffffffffffffff16600160009054906101000a900473ffffffffffffffffffffffffffffffffffffffff16604051602001610e81949392919061117e565b6040516020818303038152906040528051906020012060001c610ea49190611017565b905090565b6040518060400160405280600290602082028036833780820191505090505090565b6000819050919050565b610ede81610ecb565b82525050565b6000602082019050610ef96000830184610ed5565b92915050565b600073ffffffffffffffffffffffffffffffffffffffff82169050919050565b6000610f2a82610eff565b9050919050565b610f3a81610f1f565b82525050565b6000602082019050610f556000830184610f31565b92915050565b600080fd5b610f6981610ecb565b8114610f7457600080fd5b50565b600081359050610f8681610f60565b92915050565b600060208284031215610fa257610fa1610f5b565b5b6000610fb084828501610f77565b91505092915050565b7f4e487b7100000000000000000000000000000000000000000000000000000000600052603260045260246000fd5b7f4e487b7100000000000000000000000000000000000000000000000000000000600052601260045260246000fd5b600061102282610ecb565b915061102d83610ecb565b92508261103d5761103c610fe8565b5b828206905092915050565b7f4e487b7100000000000000000000000000000000000000000000000000000000600052601160045260246000fd5b600061108282610ecb565b915061108d83610ecb565b9250827fffffffffffffffffffffffffffffffffffffffffffffffffffffffffffffffff038211156110c2576110c1611048565b5b828201905092915050565b60006110d882610ecb565b91507fffffffffffffffffffffffffffffffffffffffffffffffffffffffffffffffff820361110a57611109611048565b5b600182019050919050565b6000819050919050565b61113061112b82610ecb565b611115565b82525050565b60008160601b9050919050565b600061114e82611136565b9050919050565b600061116082611143565b9050919050565b61117861117382610f1f565b611155565b82525050565b600061118a828761111f565b60208201915061119a828661111f565b6020820191506111aa8285611167565b6014820191506111ba8284611167565b6014820191508190509594505050505056fea2646970667358221220c85a9227c7828277cf7fc6e33a896e4da414116a4e1e2b760d4e8de363e47e9564736f6c634300080d0033",
  "immutableReferences": {},
  "source": "// SPDX-License-Identifier: MIT\npragma solidity ^0.8.13;\n\n//import \"hardhat/console.sol\";\n\ncontract BlackJackV2 {\n\n  bool gameStart = false;\n\n  address public dealer;\n  address public player;\n\n  uint public dealerBalance;\n  uint public playerBalance;\n\n  uint[] public dealerHand; // store the card indexes in dealer's hand\n  uint[] public playerHand; // store the card indexes in player's hand\n\n  uint public minBet;\n  uint public maxBet; // minBet and maxBet for each round, defined by dealer when he deploy the contract.\n\n  // the whole deck of the game, cards are drawn in this deck.\n  // length = 52 * 3, meaning we are using 3 decks of cards.\n  // this is to store whether a specifc card still exists.\n  uint[] deck = new uint[](52*3);\n\n  // CONSTRUCTOR\n  constructor(uint _minBet, uint _maxBet) payable {\n\n    require(msg.value > _maxBet * 10, \"You provide too little bet\");\n    minBet = _minBet;\n    maxBet = _maxBet;\n    dealer = msg.sender;\n    dealerBalance = msg.value;\n\n  }\n\n\n  // change the number of cards as 1,\n  // deck from [0, 0, 0, ... , 0]\n  //        to [1, 1, 1, ... , 1].\n  function defaultCardDeck() private {\n    for (uint i = 0; i < deck.length; i++) {\n      deck[i] = 1;\n    }\n  }\n\n\n  // generate a random number, we need to figure out a better way maybe?\n  // we need to ensure the random number cannot be guessed given the params\n  // in keccak within a block mining round time\n  function randomNumber() private view returns(uint) {\n    return uint(keccak256(abi.encodePacked(block.difficulty, block.timestamp, dealer, player))) % (52 * 3);\n  }\n\n\n  // anyone can join this game, once (s)he's in, the player can only be him/her.\n  // only admit players to join in if no other player is in the game.\n  // *** CALLABLE\n  function joinGame() public payable {\n    //console.log(minBet);\n    //console.log(maxBet);\n    require (player == address(0));\n    require (msg.value >= minBet && msg.value <= maxBet);\n    require (msg.value % 10 == 0);\n    player = msg.sender;\n    playerBalance += msg.value;\n\n  }\n\n  // *** CALLABLE\n  // function putBet() public payable onlyPlayer {\n  //   require (msg.value >= minBet && msg.value <= maxBet);\n  //   require (msg.value % 10 == 0);\n  //   playerBalance += msg.value;\n  // }\n\n\n  // randomly draw a card from deck, if the card drawn is drawn before, draw again,\n  // if the card drawn is never drawn before, set deck[index] => 0.\n  // *** CALLABLE\n  function hitCard() private returns(uint) {\n    uint randomCardIndex = randomNumber() % (52 * 3);\n    while (deck[randomCardIndex] == 0) {\n      randomCardIndex = randomNumber() % (52 * 3);\n    }\n    deck[randomCardIndex] = 0;\n    return randomCardIndex;\n  }\n\n  // *** CALLABLE\n  function playerHitCard() public onlyPlayer {\n    require (gameStart == true);\n    uint newCard = hitCard();\n    playerHand.push(newCard);\n    uint[2] memory playerCardValues = getSumInHand(playerHand);\n    if (check21(playerCardValues) == true) {\n      // transfer the balance to the player\n      gameStart = false;\n    }\n    if (checkOver21(playerCardValues) == true) {\n      // transfer the balance to the dealer\n      gameStart = false;\n    }\n  }\n\n  // *** CALLABLE\n  function playerStand() public {\n    // dealer call when time out\n    require (msg.sender == player || msg.sender == dealer);\n    require (gameStart == true);\n    uint[2] memory dealerCardValues = getSumInHand(dealerHand);\n    uint dealerLargerValue = dealerCardValues[1];\n    while (dealerLargerValue < 17) {\n      dealerHand.push(hitCard());\n      dealerCardValues = getSumInHand(dealerHand);\n      if (dealerCardValues[1] > 21) {\n        dealerLargerValue = dealerCardValues[0];\n      }\n    }\n    if (dealerLargerValue > 21) {\n      // transfer money to player\n    }\n    uint[2] memory playerCardValue = getSumInHand(playerHand);\n    uint playerLargerValue = 0;\n    if (playerCardValue[1] > 21) {\n      playerLargerValue = playerCardValue[0];\n    } else {\n      playerLargerValue = playerCardValue[1];\n    }\n    if (dealerLargerValue >= playerLargerValue) {\n      // deduct player balance, add to dealer's balance;\n    } else {\n      // transfer money to player, same amount as player's balance\n    }\n    gameStart = false;\n  }\n\n\n  // returns the sum of the card values in player/dealers hand\n  // array because we at most have two values in hand (considering Ace)\n  // for example,\n  // cardInHand = [A, J] => [11, 21]\n  // cardInHand = [A, A] => [2, 12]\n  // cardInHand = [A, A, A] => [3, 13]\n  // cardInHand = [1, 2, 3] => [6, 6]\n  // cardInHand = [J, K, Q] => [30, 30]\n  // cardInHand = [A, A, 10] => [12, 22]\n  function getSumInHand(uint[] storage hand) private view returns(uint[2] memory) {\n    uint[2] memory cardValues = [uint(0), uint(0)];\n    for (uint i = 0; i < hand.length; i++) {\n      uint cardIndex = hand[i];\n      uint cardValue = cardIndex % 52 % 13 + 1;\n      if (cardValue > 10) {\n        cardValues[0] += 10;\n        cardValues[1] += 10;\n      } else if (cardValue == 1) {\n        if (cardValues[1] >= 11) {\n          cardValues[0] += 1;\n          cardValues[1] += 1;\n        } else {\n          cardValues[0] += 1;\n          cardValues[1] += 11;\n        }\n      } else {\n        cardValues[0] += cardValue;\n        cardValues[1] += cardValue;\n      }\n    }\n    return cardValues;\n  }\n\n\n  // get the possible sums of card in hand.\n  // if any is 21, return true, else return false\n  // only trigger at the initial stage.\n  function check21(uint[2] memory cardValues) private pure returns(bool){\n    if (cardValues[0] == 21 || cardValues[1] == 21) {\n      return true;\n    }\n    return false;\n  }\n\n\n  // check if the player/dealer can still hit cards, if both possible sum in his/her hand > 21\n  // return true, else return false.\n  function checkOver21(uint[2] memory cardValues) private pure returns(bool) {\n    if (cardValues[0] > 21){\n      return true;\n    }\n    return false;\n  }\n\n\n  // start game, only dealer can call.\n  // *** CALLABLE\n  function startGame() public onlyDealer() {\n    require (dealer != address(0) && player != address(0));\n    gameStart = true;\n    defaultCardDeck();\n\n    // send the initial two cards to both\n    uint playerCard1 = hitCard();\n    playerHand.push(playerCard1);\n    uint dealerCard1 = hitCard();\n    dealerHand.push(dealerCard1);\n    uint playerCard2 = hitCard();\n    playerHand.push(playerCard2);\n    uint dealerCard2 = hitCard();\n    dealerHand.push(dealerCard2);\n\n    // check if cardValue of player is == 21\n    uint[2] memory playerCardValues = getSumInHand(playerHand);\n    if (check21(playerCardValues) == true) {\n      // transfer players balance * 2\n      gameStart = false;\n    }\n    // increase bet size\n    // check if cardValue of dealerCard2 is == 1, if yes, insurance\n    // check if cardValue of playerCard1 == playerCard2, if yes, split. This part is hard because i cant figure out a way to store multiple hands of a single player.\n  }\n\n\n  // a player can only quit a game if the game is not on.\n  // CALLABLE ***\n  function quitGame() public onlyPlayer {\n    require(gameStart == false);\n    player = address(0);\n  }\n\n   \n\n\n  // MODIFIERs\n\n  modifier onlyPlayer() {\n    require (msg.sender == player);\n    _;\n  }\n\n\n  modifier onlyDealer() {\n    require (msg.sender == dealer);\n    _;\n  }\n \n}\n\n\n\n\n\n// END OF THE FILE\n",
  "sourcePath": "/Users/tedwu/Desktop/ 4/Blackjack/Blackjack_frontend/truffle/contracts/BlackJackV2.sol",
  "compiler": {
    "name": "solc",
    "version": "0.8.13+commit.abaa5c0e.Emscripten.clang"
  },
  "schemaVersion": "3.4.7",
  "updatedAt": "2022-05-22T15:17:28.904Z",
  "networkType": "ethereum",
  "devdoc": {
    "kind": "dev",
    "methods": {},
    "version": 1
  },
  "userdoc": {
    "kind": "user",
    "methods": {},
    "version": 1
  }
}