{
  "contractName": "BlackJack",
  "abi": [
    {
      "inputs": [
        {
          "internalType": "uint256",
          "name": "_minBet",
          "type": "uint256"
        },
        {
          "internalType": "uint256",
          "name": "_maxBet",
          "type": "uint256"
        }
      ],
      "stateMutability": "payable",
      "type": "constructor"
    },
    {
      "inputs": [],
      "name": "joinGame",
      "outputs": [],
      "stateMutability": "payable",
      "type": "function"
    },
    {
      "inputs": [],
      "name": "playerHitCard",
      "outputs": [],
      "stateMutability": "nonpayable",
      "type": "function"
    },
    {
      "inputs": [],
      "name": "playerStand",
      "outputs": [],
      "stateMutability": "nonpayable",
      "type": "function"
    },
    {
      "inputs": [],
      "name": "startGame",
      "outputs": [],
      "stateMutability": "nonpayable",
      "type": "function"
    },
    {
      "inputs": [],
      "name": "quitGame",
      "outputs": [],
      "stateMutability": "nonpayable",
      "type": "function"
    }
  ],
  "bytecode": "0x608060405260008060006101000a81548160ff021916908315150217905550609c67ffffffffffffffff8111156200003c576200003b62000193565b5b6040519080825280602002602001820160405280156200006b5781602001602082028036833780820191505090505b50600890805190602001906200008392919062000122565b5060405162001199380380620011998339818101604052810190620000a9919062000202565b600a81620000b8919062000278565b3411620000c457600080fd5b816006819055508060078190555033600060016101000a81548173ffffffffffffffffffffffffffffffffffffffff021916908373ffffffffffffffffffffffffffffffffffffffff160217905550346002819055505050620002d9565b82805482825590600052602060002090810192821562000161579160200282015b828111156200016057825182559160200191906001019062000143565b5b50905062000170919062000174565b5090565b5b808211156200018f57600081600090555060010162000175565b5090565b7f4e487b7100000000000000000000000000000000000000000000000000000000600052604160045260246000fd5b600080fd5b6000819050919050565b620001dc81620001c7565b8114620001e857600080fd5b50565b600081519050620001fc81620001d1565b92915050565b600080604083850312156200021c576200021b620001c2565b5b60006200022c85828601620001eb565b92505060206200023f85828601620001eb565b9150509250929050565b7f4e487b7100000000000000000000000000000000000000000000000000000000600052601160045260246000fd5b60006200028582620001c7565b91506200029283620001c7565b9250817fffffffffffffffffffffffffffffffffffffffffffffffffffffffffffffffff0483118215151615620002ce57620002cd62000249565b5b828202905092915050565b610eb080620002e96000396000f3fe60806040526004361061004a5760003560e01c80639fda4d051461004f578063b4a6051214610066578063c9f09d381461007d578063d4f77b1c14610094578063d65ab5f21461009e575b600080fd5b34801561005b57600080fd5b506100646100b5565b005b34801561007257600080fd5b5061007b6101d2565b005b34801561008957600080fd5b5061009261028e565b005b61009c61049e565b005b3480156100aa57600080fd5b506100b361058b565b005b600160009054906101000a900473ffffffffffffffffffffffffffffffffffffffff1673ffffffffffffffffffffffffffffffffffffffff163373ffffffffffffffffffffffffffffffffffffffff161461010f57600080fd5b6001151560008054906101000a900460ff1615151461012d57600080fd5b60006101376107d6565b90506005819080600181540180825580915050600190039060005260206000200160009091909190915055600061016e600561085c565b90506001151561017d82610aa9565b15150361019f5760008060006101000a81548160ff0219169083151502179055505b600115156101ac82610b02565b1515036101ce5760008060006101000a81548160ff0219169083151502179055505b5050565b600160009054906101000a900473ffffffffffffffffffffffffffffffffffffffff1673ffffffffffffffffffffffffffffffffffffffff163373ffffffffffffffffffffffffffffffffffffffff161461022c57600080fd5b6000151560008054906101000a900460ff1615151461024a57600080fd5b6000600160006101000a81548173ffffffffffffffffffffffffffffffffffffffff021916908373ffffffffffffffffffffffffffffffffffffffff160217905550565b600160009054906101000a900473ffffffffffffffffffffffffffffffffffffffff1673ffffffffffffffffffffffffffffffffffffffff163373ffffffffffffffffffffffffffffffffffffffff1614806103375750600060019054906101000a900473ffffffffffffffffffffffffffffffffffffffff1673ffffffffffffffffffffffffffffffffffffffff163373ffffffffffffffffffffffffffffffffffffffff16145b61034057600080fd5b6001151560008054906101000a900460ff1615151461035e57600080fd5b600061036a600461085c565b905060008160016002811061038257610381610c2b565b5b602002015190505b601181101561041157600461039d6107d6565b90806001815401808255809150506001900390600052602060002001600090919091909150556103cd600461085c565b91506015826001600281106103e5576103e4610c2b565b5b6020020151111561040c578160006002811061040457610403610c2b565b5b602002015190505b61038a565b600061041d600561085c565b9050600060158260016002811061043757610436610c2b565b5b60200201511115610462578160006002811061045657610455610c2b565b5b6020020151905061047e565b8160016002811061047657610475610c2b565b5b602002015190505b60008060006101000a81548160ff02191690831515021790555050505050565b600073ffffffffffffffffffffffffffffffffffffffff16600160009054906101000a900473ffffffffffffffffffffffffffffffffffffffff1673ffffffffffffffffffffffffffffffffffffffff16146104f957600080fd5b600654341015801561050d57506007543411155b61051657600080fd5b6000600a346105259190610c93565b1461052f57600080fd5b33600160006101000a81548173ffffffffffffffffffffffffffffffffffffffff021916908373ffffffffffffffffffffffffffffffffffffffff16021790555034600360008282546105829190610cf3565b92505081905550565b600060019054906101000a900473ffffffffffffffffffffffffffffffffffffffff1673ffffffffffffffffffffffffffffffffffffffff163373ffffffffffffffffffffffffffffffffffffffff16146105e557600080fd5b600073ffffffffffffffffffffffffffffffffffffffff16600060019054906101000a900473ffffffffffffffffffffffffffffffffffffffff1673ffffffffffffffffffffffffffffffffffffffff16141580156106935750600073ffffffffffffffffffffffffffffffffffffffff16600160009054906101000a900473ffffffffffffffffffffffffffffffffffffffff1673ffffffffffffffffffffffffffffffffffffffff1614155b61069c57600080fd5b60016000806101000a81548160ff0219169083151502179055506106be610b38565b60006106c86107d6565b9050600581908060018154018082558091505060019003906000526020600020016000909190919091505560006106fd6107d6565b9050600481908060018154018082558091505060019003906000526020600020016000909190919091505560006107326107d6565b9050600581908060018154018082558091505060019003906000526020600020016000909190919091505560006107676107d6565b90506004819080600181540180825580915050600190039060005260206000200160009091909190915055600061079e600561085c565b9050600115156107ad82610aa9565b1515036107cf5760008060006101000a81548160ff0219169083151502179055505b5050505050565b600080609c6107e3610b82565b6107ed9190610c93565b90505b60006008828154811061080657610805610c2b565b5b90600052602060002001540361083157609c610820610b82565b61082a9190610c93565b90506107f0565b60006008828154811061084757610846610c2b565b5b90600052602060002001819055508091505090565b610864610c09565b60006040518060400160405280600081526020016000815250905060005b8380549050811015610a9f5760008482815481106108a3576108a2610c2b565b5b906000526020600020015490506000600160046034846108c39190610c93565b6108cd9190610c93565b6108d79190610cf3565b9050600a81111561094357600a846000600281106108f8576108f7610c2b565b5b602002018181516109099190610cf3565b91508181525050600a8460016002811061092657610925610c2b565b5b602002018181516109379190610cf3565b91508181525050610a8a565b60018103610a2e57600b8460016002811061096157610960610c2b565b5b6020020151106109cc5760018460006002811061098157610980610c2b565b5b602002018181516109929190610cf3565b915081815250506001846001600281106109af576109ae610c2b565b5b602002018181516109c09190610cf3565b91508181525050610a29565b6001846000600281106109e2576109e1610c2b565b5b602002018181516109f39190610cf3565b91508181525050600b84600160028110610a1057610a0f610c2b565b5b60200201818151610a219190610cf3565b915081815250505b610a89565b8084600060028110610a4357610a42610c2b565b5b60200201818151610a549190610cf3565b915081815250508084600160028110610a7057610a6f610c2b565b5b60200201818151610a819190610cf3565b915081815250505b5b50508080610a9790610d49565b915050610882565b5080915050919050565b6000601582600060028110610ac157610ac0610c2b565b5b60200201511480610aea5750601582600160028110610ae357610ae2610c2b565b5b6020020151145b15610af85760019050610afd565b600090505b919050565b6000601582600060028110610b1a57610b19610c2b565b5b60200201511115610b2e5760019050610b33565b600090505b919050565b60005b600880549050811015610b7f57600160088281548110610b5e57610b5d610c2b565b5b90600052602060002001819055508080610b7790610d49565b915050610b3b565b50565b6000609c4442600060019054906101000a900473ffffffffffffffffffffffffffffffffffffffff16600160009054906101000a900473ffffffffffffffffffffffffffffffffffffffff16604051602001610be19493929190610e2c565b6040516020818303038152906040528051906020012060001c610c049190610c93565b905090565b6040518060400160405280600290602082028036833780820191505090505090565b7f4e487b7100000000000000000000000000000000000000000000000000000000600052603260045260246000fd5b6000819050919050565b7f4e487b7100000000000000000000000000000000000000000000000000000000600052601260045260246000fd5b6000610c9e82610c5a565b9150610ca983610c5a565b925082610cb957610cb8610c64565b5b828206905092915050565b7f4e487b7100000000000000000000000000000000000000000000000000000000600052601160045260246000fd5b6000610cfe82610c5a565b9150610d0983610c5a565b9250827fffffffffffffffffffffffffffffffffffffffffffffffffffffffffffffffff03821115610d3e57610d3d610cc4565b5b828201905092915050565b6000610d5482610c5a565b91507fffffffffffffffffffffffffffffffffffffffffffffffffffffffffffffffff8203610d8657610d85610cc4565b5b600182019050919050565b6000819050919050565b610dac610da782610c5a565b610d91565b82525050565b600073ffffffffffffffffffffffffffffffffffffffff82169050919050565b6000610ddd82610db2565b9050919050565b60008160601b9050919050565b6000610dfc82610de4565b9050919050565b6000610e0e82610df1565b9050919050565b610e26610e2182610dd2565b610e03565b82525050565b6000610e388287610d9b565b602082019150610e488286610d9b565b602082019150610e588285610e15565b601482019150610e688284610e15565b6014820191508190509594505050505056fea26469706673582212204ba1e79e67113a650f0484acd5deca6caf8733e845c9c22f84bb2c414a5c14b964736f6c634300080d0033",
  "immutableReferences": {},
  "source": "// SPDX-License-Identifier: MIT\npragma solidity ^0.8.13;\n\n//import \"hardhat/console.sol\";\n\ncontract BlackJack {\n\n  bool gameStart = false;\n\n  address dealer;\n  address player;\n\n  uint dealerBalance;\n  uint playerBalance;\n\n  uint[] dealerHand; // store the card indexes in dealer's hand\n  uint[] playerHand; // store the card indexes in player's hand\n\n  uint minBet;\n  uint maxBet; // minBet and maxBet for each round, defined by dealer when he deploy the contract.\n\n  // the whole deck of the game, cards are drawn in this deck.\n  // length = 52 * 3, meaning we are using 3 decks of cards.\n  // this is to store whether a specifc card still exists.\n  uint[] deck = new uint[](52*3);\n\n  // CONSTRUCTOR\n  constructor(uint _minBet, uint _maxBet) payable {\n\n    require(msg.value > _maxBet * 10);\n    minBet = _minBet;\n    maxBet = _maxBet;\n    dealer = msg.sender;\n    dealerBalance = msg.value;\n\n  }\n\n\n  // change the number of cards as 1,\n  // deck from [0, 0, 0, ... , 0]\n  //        to [1, 1, 1, ... , 1].\n  function defaultCardDeck() private {\n    for (uint i = 0; i < deck.length; i++) {\n      deck[i] = 1;\n    }\n  }\n\n\n  // generate a random number, we need to figure out a better way maybe?\n  // we need to ensure the random number cannot be guessed given the params\n  // in keccak within a block mining round time\n  function randomNumber() private view returns(uint) {\n    return uint(keccak256(abi.encodePacked(block.difficulty, block.timestamp, dealer, player))) % (52 * 3);\n  }\n\n\n  // anyone can join this game, once (s)he's in, the player can only be him/her.\n  // only admit players to join in if no other player is in the game.\n  // *** CALLABLE\n  function joinGame() public payable {\n    //console.log(minBet);\n    //console.log(maxBet);\n    require (player == address(0));\n    require (msg.value >= minBet && msg.value <= maxBet);\n    require (msg.value % 10 == 0);\n    player = msg.sender;\n    playerBalance += msg.value;\n\n  }\n\n  // *** CALLABLE\n  // function putBet() public payable onlyPlayer {\n  //   require (msg.value >= minBet && msg.value <= maxBet);\n  //   require (msg.value % 10 == 0);\n  //   playerBalance += msg.value;\n  // }\n\n\n  // randomly draw a card from deck, if the card drawn is drawn before, draw again,\n  // if the card drawn is never drawn before, set deck[index] => 0.\n  // *** CALLABLE\n  function hitCard() private returns(uint) {\n    uint randomCardIndex = randomNumber() % (52 * 3);\n    while (deck[randomCardIndex] == 0) {\n      randomCardIndex = randomNumber() % (52 * 3);\n    }\n    deck[randomCardIndex] = 0;\n    return randomCardIndex;\n  }\n\n  // *** CALLABLE\n  function playerHitCard() public onlyPlayer {\n    require (gameStart == true);\n    uint newCard = hitCard();\n    playerHand.push(newCard);\n    uint[2] memory playerCardValues = getSumInHand(playerHand);\n    if (check21(playerCardValues) == true) {\n      // transfer the balance to the player\n      gameStart = false;\n    }\n    if (checkOver21(playerCardValues) == true) {\n      // transfer the balance to the dealer\n      gameStart = false;\n    }\n  }\n\n  // *** CALLABLE\n  function playerStand() public {\n    // dealer call when time out\n    require (msg.sender == player || msg.sender == dealer);\n    require (gameStart == true);\n    uint[2] memory dealerCardValues = getSumInHand(dealerHand);\n    uint dealerLargerValue = dealerCardValues[1];\n    while (dealerLargerValue < 17) {\n      dealerHand.push(hitCard());\n      dealerCardValues = getSumInHand(dealerHand);\n      if (dealerCardValues[1] > 21) {\n        dealerLargerValue = dealerCardValues[0];\n      }\n    }\n    uint[2] memory playerCardValue = getSumInHand(playerHand);\n    uint playerLargerValue = 0;\n    if (playerCardValue[1] > 21) {\n      playerLargerValue = playerCardValue[0];\n    } else {\n      playerLargerValue = playerCardValue[1];\n    }\n    if (dealerLargerValue >= playerLargerValue) {\n      // deduct player balance, add to dealer's balance;\n    } else {\n      // transfer money to player, same amount as player's balance\n    }\n    gameStart = false;\n  }\n\n\n  // returns the sum of the card values in player/dealers hand\n  // array because we at most have two values in hand (considering Ace)\n  // for example,\n  // cardInHand = [A, J] => [11, 21]\n  // cardInHand = [A, A] => [2, 12]\n  // cardInHand = [A, A, A] => [3, 13]\n  // cardInHand = [1, 2, 3] => [6, 6]\n  // cardInHand = [J, K, Q] => [30, 30]\n  // cardInHand = [A, A, 10] => [12, 22]\n  function getSumInHand(uint[] storage hand) private view returns(uint[2] memory) {\n    uint[2] memory cardValues = [uint(0), uint(0)];\n    for (uint i = 0; i < hand.length; i++) {\n      uint cardIndex = hand[i];\n      uint cardValue = cardIndex % 52 % 4 + 1;\n      if (cardValue > 10) {\n        cardValues[0] += 10;\n        cardValues[1] += 10;\n      } else if (cardValue == 1) {\n        if (cardValues[1] >= 11) {\n          cardValues[0] += 1;\n          cardValues[1] += 1;\n        } else {\n          cardValues[0] += 1;\n          cardValues[1] += 11;\n        }\n      } else {\n        cardValues[0] += cardValue;\n        cardValues[1] += cardValue;\n      }\n    }\n    return cardValues;\n  }\n\n\n  // get the possible sums of card in hand.\n  // if any is 21, return true, else return false\n  // only trigger at the initial stage.\n  function check21(uint[2] memory cardValues) private pure returns(bool){\n    if (cardValues[0] == 21 || cardValues[1] == 21) {\n      return true;\n    }\n    return false;\n  }\n\n\n  // check if the player/dealer can still hit cards, if both possible sum in his/her hand > 21\n  // return true, else return false.\n  function checkOver21(uint[2] memory cardValues) private pure returns(bool) {\n    if (cardValues[0] > 21){\n      return true;\n    }\n    return false;\n  }\n\n\n  // start game, only dealer can call.\n  // *** CALLABLE\n  function startGame() public onlyDealer() {\n    require (dealer != address(0) && player != address(0));\n    gameStart = true;\n    defaultCardDeck();\n\n    // send the initial two cards to both\n    uint playerCard1 = hitCard();\n    playerHand.push(playerCard1);\n    uint dealerCard1 = hitCard();\n    dealerHand.push(dealerCard1);\n    uint playerCard2 = hitCard();\n    playerHand.push(playerCard2);\n    uint dealerCard2 = hitCard();\n    dealerHand.push(dealerCard2);\n\n    // check if cardValue of player is == 21\n    uint[2] memory playerCardValues = getSumInHand(playerHand);\n    if (check21(playerCardValues) == true) {\n      // transfer players balance * 2\n      gameStart = false;\n    }\n    // check if cardValue of dealerCard2 is == 1, if yes, insurance\n    // check if cardValue of playerCard1 == playerCard2, if yes, split. This part is hard because i cant figure out a way to store multiple hands of a single player.\n  }\n\n\n  // a player can only quit a game if the game is not on.\n  // CALLABLE ***\n  function quitGame() public onlyPlayer {\n    require(gameStart == false);\n    player = address(0);\n  }\n\n\n  // MODIFIERs\n\n  modifier onlyPlayer() {\n    require (msg.sender == player);\n    _;\n  }\n\n\n  modifier onlyDealer() {\n    require (msg.sender == dealer);\n    _;\n  }\n}\n\n// END OF THE FILE\n",
  "sourcePath": "/Users/tedwu/Desktop/ 4/Blackjack/contracts/contracts/BlackJackV2.sol",
  "compiler": {
    "name": "solc",
    "version": "0.8.13+commit.abaa5c0e.Emscripten.clang"
  },
  "schemaVersion": "3.4.7",
  "updatedAt": "2022-05-16T12:06:20.559Z",
  "devdoc": {
    "kind": "dev",
    "methods": {},
    "version": 1
  },
  "userdoc": {
    "kind": "user",
    "methods": {},
    "version": 1
  }
}