{
  "contractName": "BlackJackV2",
  "abi": [
    {
      "inputs": [
        {
          "internalType": "uint256",
          "name": "_minBet",
          "type": "uint256"
        },
        {
          "internalType": "uint256",
          "name": "_maxBet",
          "type": "uint256"
        }
      ],
      "stateMutability": "payable",
      "type": "constructor",
      "payable": true
    },
    {
      "anonymous": false,
      "inputs": [
        {
          "indexed": false,
          "internalType": "address",
          "name": "_player",
          "type": "address"
        },
        {
          "indexed": false,
          "internalType": "uint256",
          "name": "_dealerBalance",
          "type": "uint256"
        },
        {
          "indexed": false,
          "internalType": "uint256",
          "name": "_playerBalance",
          "type": "uint256"
        }
      ],
      "name": "JoinGame",
      "type": "event"
    },
    {
      "anonymous": false,
      "inputs": [
        {
          "indexed": false,
          "internalType": "uint256[]",
          "name": "_playerHand",
          "type": "uint256[]"
        },
        {
          "indexed": false,
          "internalType": "uint256[]",
          "name": "_dealerHand",
          "type": "uint256[]"
        },
        {
          "indexed": false,
          "internalType": "uint256",
          "name": "_dealerBalance",
          "type": "uint256"
        },
        {
          "indexed": false,
          "internalType": "uint256",
          "name": "_playerBalance",
          "type": "uint256"
        },
        {
          "indexed": false,
          "internalType": "bool",
          "name": "_playerWin",
          "type": "bool"
        },
        {
          "indexed": false,
          "internalType": "bool",
          "name": "_gameStart",
          "type": "bool"
        }
      ],
      "name": "PlayerHit",
      "type": "event"
    },
    {
      "anonymous": false,
      "inputs": [
        {
          "indexed": false,
          "internalType": "uint256[]",
          "name": "_playerHand",
          "type": "uint256[]"
        },
        {
          "indexed": false,
          "internalType": "uint256[]",
          "name": "_dealerHand",
          "type": "uint256[]"
        },
        {
          "indexed": false,
          "internalType": "uint256",
          "name": "_dealerBalance",
          "type": "uint256"
        },
        {
          "indexed": false,
          "internalType": "uint256",
          "name": "_playerBalance",
          "type": "uint256"
        },
        {
          "indexed": false,
          "internalType": "bool",
          "name": "_playerWin",
          "type": "bool"
        },
        {
          "indexed": false,
          "internalType": "bool",
          "name": "_gameStart",
          "type": "bool"
        }
      ],
      "name": "PlayerStand",
      "type": "event"
    },
    {
      "anonymous": false,
      "inputs": [
        {
          "indexed": false,
          "internalType": "bool",
          "name": "_gameStart",
          "type": "bool"
        },
        {
          "indexed": false,
          "internalType": "uint256",
          "name": "_dealerBalance",
          "type": "uint256"
        },
        {
          "indexed": false,
          "internalType": "uint256",
          "name": "_playerBalance",
          "type": "uint256"
        },
        {
          "indexed": false,
          "internalType": "bool",
          "name": "_playerWin",
          "type": "bool"
        }
      ],
      "name": "StartGame",
      "type": "event"
    },
    {
      "inputs": [],
      "name": "dealer",
      "outputs": [
        {
          "internalType": "address",
          "name": "",
          "type": "address"
        }
      ],
      "stateMutability": "view",
      "type": "function",
      "constant": true
    },
    {
      "inputs": [],
      "name": "dealerBalance",
      "outputs": [
        {
          "internalType": "uint256",
          "name": "",
          "type": "uint256"
        }
      ],
      "stateMutability": "view",
      "type": "function",
      "constant": true
    },
    {
      "inputs": [],
      "name": "gameStart",
      "outputs": [
        {
          "internalType": "bool",
          "name": "",
          "type": "bool"
        }
      ],
      "stateMutability": "view",
      "type": "function",
      "constant": true
    },
    {
      "inputs": [],
      "name": "maxBet",
      "outputs": [
        {
          "internalType": "uint256",
          "name": "",
          "type": "uint256"
        }
      ],
      "stateMutability": "view",
      "type": "function",
      "constant": true
    },
    {
      "inputs": [],
      "name": "minBet",
      "outputs": [
        {
          "internalType": "uint256",
          "name": "",
          "type": "uint256"
        }
      ],
      "stateMutability": "view",
      "type": "function",
      "constant": true
    },
    {
      "inputs": [],
      "name": "player",
      "outputs": [
        {
          "internalType": "address",
          "name": "",
          "type": "address"
        }
      ],
      "stateMutability": "view",
      "type": "function",
      "constant": true
    },
    {
      "inputs": [],
      "name": "playerBalance",
      "outputs": [
        {
          "internalType": "uint256",
          "name": "",
          "type": "uint256"
        }
      ],
      "stateMutability": "view",
      "type": "function",
      "constant": true
    },
    {
      "inputs": [],
      "name": "playerWin",
      "outputs": [
        {
          "internalType": "bool",
          "name": "",
          "type": "bool"
        }
      ],
      "stateMutability": "view",
      "type": "function",
      "constant": true
    },
    {
      "inputs": [],
      "name": "joinGame",
      "outputs": [],
      "stateMutability": "payable",
      "type": "function",
      "payable": true
    },
    {
      "inputs": [],
      "name": "playerHitCard",
      "outputs": [],
      "stateMutability": "nonpayable",
      "type": "function"
    },
    {
      "inputs": [],
      "name": "playerStand",
      "outputs": [],
      "stateMutability": "nonpayable",
      "type": "function"
    },
    {
      "inputs": [],
      "name": "startGame",
      "outputs": [],
      "stateMutability": "nonpayable",
      "type": "function"
    },
    {
      "inputs": [],
      "name": "withdraw",
      "outputs": [],
      "stateMutability": "nonpayable",
      "type": "function"
    },
    {
      "inputs": [],
      "name": "quitGame",
      "outputs": [],
      "stateMutability": "nonpayable",
      "type": "function"
    },
    {
      "inputs": [],
      "name": "getDealerHand",
      "outputs": [
        {
          "internalType": "uint256[]",
          "name": "",
          "type": "uint256[]"
        }
      ],
      "stateMutability": "view",
      "type": "function",
      "constant": true
    },
    {
      "inputs": [],
      "name": "getPlayerHand",
      "outputs": [
        {
          "internalType": "uint256[]",
          "name": "",
          "type": "uint256[]"
        }
      ],
      "stateMutability": "view",
      "type": "function",
      "constant": true
    }
  ],
  "bytecode": "0x608060405260008060006101000a81548160ff02191690831515021790555060008060016101000a81548160ff021916908315150217905550609c67ffffffffffffffff811115620000565762000055620001e5565b5b604051908082528060200260200182016040528015620000855781602001602082028036833780820191505090505b50600990805190602001906200009d92919062000174565b506040516200205b3803806200205b8339818101604052810190620000c3919062000254565b600a81620000d29190620002ca565b341162000116576040517f08c379a00000000000000000000000000000000000000000000000000000000081526004016200010d906200038c565b60405180910390fd5b816007819055508060088190555033600060026101000a81548173ffffffffffffffffffffffffffffffffffffffff021916908373ffffffffffffffffffffffffffffffffffffffff160217905550346002819055505050620003ae565b828054828255906000526020600020908101928215620001b3579160200282015b82811115620001b257825182559160200191906001019062000195565b5b509050620001c29190620001c6565b5090565b5b80821115620001e1576000816000905550600101620001c7565b5090565b7f4e487b7100000000000000000000000000000000000000000000000000000000600052604160045260246000fd5b600080fd5b6000819050919050565b6200022e8162000219565b81146200023a57600080fd5b50565b6000815190506200024e8162000223565b92915050565b600080604083850312156200026e576200026d62000214565b5b60006200027e858286016200023d565b925050602062000291858286016200023d565b9150509250929050565b7f4e487b7100000000000000000000000000000000000000000000000000000000600052601160045260246000fd5b6000620002d78262000219565b9150620002e48362000219565b9250817fffffffffffffffffffffffffffffffffffffffffffffffffffffffffffffffff048311821515161562000320576200031f6200029b565b5b828202905092915050565b600082825260208201905092915050565b7f596f752070726f7669646520746f6f206c6974746c6520626574000000000000600082015250565b600062000374601a836200032b565b915062000381826200033c565b602082019050919050565b60006020820190508181036000830152620003a78162000365565b9050919050565b611c9d80620003be6000396000f3fe6080604052600436106100f35760003560e01c80639619367d1161008a578063c9f09d3811610059578063c9f09d38146102c0578063d4f77b1c146102d7578063d65ab5f2146102e1578063fffae4fa146102f8576100f3565b80639619367d1461023c5780639de2ee21146102675780639fda4d0514610292578063b4a60512146102a9576100f3565b806348db5f89116100c657806348db5f89146101905780635e5bad7c146101bb57806364351403146101e6578063651f066a14610211576100f3565b80631ab9964c146100f85780632e5b2168146101235780633218b99d1461014e5780633ccfd60b14610179575b600080fd5b34801561010457600080fd5b5061010d610323565b60405161011a9190611673565b60405180910390f35b34801561012f57600080fd5b5061013861037b565b60405161014591906116a4565b60405180910390f35b34801561015a57600080fd5b50610163610381565b60405161017091906116da565b60405180910390f35b34801561018557600080fd5b5061018e610392565b005b34801561019c57600080fd5b506101a5610535565b6040516101b29190611736565b60405180910390f35b3480156101c757600080fd5b506101d061055b565b6040516101dd91906116a4565b60405180910390f35b3480156101f257600080fd5b506101fb610561565b60405161020891906116da565b60405180910390f35b34801561021d57600080fd5b50610226610574565b60405161023391906116a4565b60405180910390f35b34801561024857600080fd5b5061025161057a565b60405161025e91906116a4565b60405180910390f35b34801561027357600080fd5b5061027c610580565b6040516102899190611736565b60405180910390f35b34801561029e57600080fd5b506102a76105a6565b005b3480156102b557600080fd5b506102be610799565b005b3480156102cc57600080fd5b506102d561086f565b005b6102df610c26565b005b3480156102ed57600080fd5b506102f6610d9b565b005b34801561030457600080fd5b5061030d6110b0565b60405161031a9190611673565b60405180910390f35b6060600580548060200260200160405190810160405280929190818152602001828054801561037157602002820191906000526020600020905b81548152602001906001019080831161035d575b5050505050905090565b60085481565b60008054906101000a900460ff1681565b600160009054906101000a900473ffffffffffffffffffffffffffffffffffffffff1673ffffffffffffffffffffffffffffffffffffffff163373ffffffffffffffffffffffffffffffffffffffff16148061043b5750600060029054906101000a900473ffffffffffffffffffffffffffffffffffffffff1673ffffffffffffffffffffffffffffffffffffffff163373ffffffffffffffffffffffffffffffffffffffff16145b61044457600080fd5b6000600160009054906101000a900473ffffffffffffffffffffffffffffffffffffffff1673ffffffffffffffffffffffffffffffffffffffff163373ffffffffffffffffffffffffffffffffffffffff16036104ad57600354905060006003819055506104bb565b600254905060006002819055505b60003373ffffffffffffffffffffffffffffffffffffffff16826040516104e190611782565b60006040518083038185875af1925050503d806000811461051e576040519150601f19603f3d011682016040523d82523d6000602084013e610523565b606091505b505090508061053157600080fd5b5050565b600160009054906101000a900473ffffffffffffffffffffffffffffffffffffffff1681565b60025481565b600060019054906101000a900460ff1681565b60035481565b60075481565b600060029054906101000a900473ffffffffffffffffffffffffffffffffffffffff1681565b600160009054906101000a900473ffffffffffffffffffffffffffffffffffffffff1673ffffffffffffffffffffffffffffffffffffffff163373ffffffffffffffffffffffffffffffffffffffff161461060057600080fd5b6001151560008054906101000a900460ff1615151461061e57600080fd5b6000610628611108565b90506005819080600181540180825580915050600190039060005260206000200160009091909190915055600061065f60056111a8565b90506001151561066e826113f5565b1515036106e05760008060006101000a81548160ff0219169083151502179055506001600060016101000a81548160ff021916908315150217905550600354600260008282546106be91906117c6565b925050819055506002600360008282546106d891906117fa565b925050819055505b600115156106ed8261144e565b1515036107325760008060006101000a81548160ff021916908315150217905550600354600260008282546107229190611854565b9250508190555060006003819055505b7f408abf3365e3f98de443044d7fefede0a576d7d5a5af40d4c2f6d70e469f0b326005600460025460035460008054906101000a900460ff16600060019054906101000a900460ff1660405161078d96959493929190611980565b60405180910390a15050565b600160009054906101000a900473ffffffffffffffffffffffffffffffffffffffff1673ffffffffffffffffffffffffffffffffffffffff163373ffffffffffffffffffffffffffffffffffffffff16146107f357600080fd5b6000151560008054906101000a900460ff1615151461081157600080fd5b60008060016101000a81548160ff0219169083151502179055506000600160006101000a81548173ffffffffffffffffffffffffffffffffffffffff021916908373ffffffffffffffffffffffffffffffffffffffff160217905550565b600160009054906101000a900473ffffffffffffffffffffffffffffffffffffffff1673ffffffffffffffffffffffffffffffffffffffff163373ffffffffffffffffffffffffffffffffffffffff1614806109185750600060029054906101000a900473ffffffffffffffffffffffffffffffffffffffff1673ffffffffffffffffffffffffffffffffffffffff163373ffffffffffffffffffffffffffffffffffffffff16145b61092157600080fd5b6001151560008054906101000a900460ff1615151461093f57600080fd5b600061094b60046111a8565b9050600081600160028110610963576109626119ef565b5b602002015190505b60118110156109f257600461097e611108565b90806001815401808255809150506001900390600052602060002001600090919091909150556109ae60046111a8565b91506015826001600281106109c6576109c56119ef565b5b602002015111156109ed57816000600281106109e5576109e46119ef565b5b602002015190505b61096b565b6015811115610ab5576001600060016101000a81548160ff02191690831515021790555060035460026000828254610a2a91906117c6565b92505081905550600260036000828254610a4491906117fa565b925050819055507fe37075f98d8d4f813c324a82d8a141a893da12024a27d45435aa96bcb8361f116005600460025460035460008054906101000a900460ff16600060019054906101000a900460ff16604051610aa696959493929190611980565b60405180910390a15050610c24565b6000610ac160056111a8565b90506000601582600160028110610adb57610ada6119ef565b5b60200201511115610b065781600060028110610afa57610af96119ef565b5b60200201519050610b22565b81600160028110610b1a57610b196119ef565b5b602002015190505b808310610b515760035460026000828254610b3d9190611854565b925050819055506000600381905550610ba2565b6001600060016101000a81548160ff02191690831515021790555060035460026000828254610b8091906117c6565b92505081905550600260036000828254610b9a91906117fa565b925050819055505b60008060006101000a81548160ff0219169083151502179055507fe37075f98d8d4f813c324a82d8a141a893da12024a27d45435aa96bcb8361f116005600460025460035460008054906101000a900460ff16600060019054906101000a900460ff16604051610c1796959493929190611980565b60405180910390a1505050505b565b600073ffffffffffffffffffffffffffffffffffffffff16600160009054906101000a900473ffffffffffffffffffffffffffffffffffffffff1673ffffffffffffffffffffffffffffffffffffffff1614610c8157600080fd5b6007543410158015610c9557506008543411155b610c9e57600080fd5b6000600a34610cad9190611a4d565b14610cb757600080fd5b600a601934610cc691906117fa565b610cd09190611a7e565b6002541015610cde57600080fd5b33600160006101000a81548173ffffffffffffffffffffffffffffffffffffffff021916908373ffffffffffffffffffffffffffffffffffffffff1602179055503460036000828254610d319190611854565b925050819055507f5a934d24bba5b820aa4f2e2d6b8723811138f8060f69d46ef34d80fdd531ab7c600160009054906101000a900473ffffffffffffffffffffffffffffffffffffffff16600254600354604051610d9193929190611aaf565b60405180910390a1565b600060029054906101000a900473ffffffffffffffffffffffffffffffffffffffff1673ffffffffffffffffffffffffffffffffffffffff163373ffffffffffffffffffffffffffffffffffffffff1614610df557600080fd5b600073ffffffffffffffffffffffffffffffffffffffff16600060029054906101000a900473ffffffffffffffffffffffffffffffffffffffff1673ffffffffffffffffffffffffffffffffffffffff1614158015610ea35750600073ffffffffffffffffffffffffffffffffffffffff16600160009054906101000a900473ffffffffffffffffffffffffffffffffffffffff1673ffffffffffffffffffffffffffffffffffffffff1614155b610eac57600080fd5b60016000806101000a81548160ff021916908315150217905550610ece611484565b6000610ed8611108565b905060058190806001815401808255809150506001900390600052602060002001600090919091909150556000610f0d611108565b905060048190806001815401808255809150506001900390600052602060002001600090919091909150556000610f42611108565b905060058190806001815401808255809150506001900390600052602060002001600090919091909150556000610f77611108565b905060048190806001815401808255809150506001900390600052602060002001600090919091909150556000610fae60056111a8565b905060011515610fbd826113f5565b15150361104c5760008060006101000a81548160ff0219169083151502179055506001600060016101000a81548160ff0219169083151502179055506000600a601960035461100c91906117fa565b6110169190611a7e565b9050806002600082825461102a91906117c6565b9250508190555080600360008282546110439190611854565b92505081905550505b7f7994c7a1881d889f99f49d26bd56a9a7d01be146098dd21c4e48eba4db719e0f60008054906101000a900460ff16600254600354600060019054906101000a900460ff166040516110a19493929190611ae6565b60405180910390a15050505050565b606060048054806020026020016040519081016040528092919081815260200182805480156110fe57602002820191906000526020600020905b8154815260200190600101908083116110ea575b5050505050905090565b600080609c6111156114ce565b61111f9190611a4d565b90505b600060098281548110611138576111376119ef565b5b90600052602060002001540361116357609c6111526114ce565b61115c9190611a4d565b9050611122565b600060098281548110611179576111786119ef565b5b906000526020600020018190555060016006600082825461119a9190611854565b925050819055508091505090565b6111b0611589565b60006040518060400160405280600081526020016000815250905060005b83805490508110156113eb5760008482815481106111ef576111ee6119ef565b5b9060005260206000200154905060006001600d60348461120f9190611a4d565b6112199190611a4d565b6112239190611854565b9050600a81111561128f57600a84600060028110611244576112436119ef565b5b602002018181516112559190611854565b91508181525050600a84600160028110611272576112716119ef565b5b602002018181516112839190611854565b915081815250506113d6565b6001810361137a57600b846001600281106112ad576112ac6119ef565b5b602002015110611318576001846000600281106112cd576112cc6119ef565b5b602002018181516112de9190611854565b915081815250506001846001600281106112fb576112fa6119ef565b5b6020020181815161130c9190611854565b91508181525050611375565b60018460006002811061132e5761132d6119ef565b5b6020020181815161133f9190611854565b91508181525050600b8460016002811061135c5761135b6119ef565b5b6020020181815161136d9190611854565b915081815250505b6113d5565b808460006002811061138f5761138e6119ef565b5b602002018181516113a09190611854565b9150818152505080846001600281106113bc576113bb6119ef565b5b602002018181516113cd9190611854565b915081815250505b5b505080806113e390611b2b565b9150506111ce565b5080915050919050565b600060158260006002811061140d5761140c6119ef565b5b60200201511480611436575060158260016002811061142f5761142e6119ef565b5b6020020151145b156114445760019050611449565b600090505b919050565b6000601582600060028110611466576114656119ef565b5b6020020151111561147a576001905061147f565b600090505b919050565b60005b6009805490508110156114cb576001600982815481106114aa576114a96119ef565b5b906000526020600020018190555080806114c390611b2b565b915050611487565b50565b600080426006546040516020016114e6929190611b94565b6040516020818303038152906040528051906020012060001c9050609c814442600060029054906101000a900473ffffffffffffffffffffffffffffffffffffffff16600160009054906101000a900473ffffffffffffffffffffffffffffffffffffffff16604051602001611560959493929190611c08565b6040516020818303038152906040528051906020012060001c6115839190611a4d565b91505090565b6040518060400160405280600290602082028036833780820191505090505090565b600081519050919050565b600082825260208201905092915050565b6000819050602082019050919050565b6000819050919050565b6115ea816115d7565b82525050565b60006115fc83836115e1565b60208301905092915050565b6000602082019050919050565b6000611620826115ab565b61162a81856115b6565b9350611635836115c7565b8060005b8381101561166657815161164d88826115f0565b975061165883611608565b925050600181019050611639565b5085935050505092915050565b6000602082019050818103600083015261168d8184611615565b905092915050565b61169e816115d7565b82525050565b60006020820190506116b96000830184611695565b92915050565b60008115159050919050565b6116d4816116bf565b82525050565b60006020820190506116ef60008301846116cb565b92915050565b600073ffffffffffffffffffffffffffffffffffffffff82169050919050565b6000611720826116f5565b9050919050565b61173081611715565b82525050565b600060208201905061174b6000830184611727565b92915050565b600081905092915050565b50565b600061176c600083611751565b91506117778261175c565b600082019050919050565b600061178d8261175f565b9150819050919050565b7f4e487b7100000000000000000000000000000000000000000000000000000000600052601160045260246000fd5b60006117d1826115d7565b91506117dc836115d7565b9250828210156117ef576117ee611797565b5b828203905092915050565b6000611805826115d7565b9150611810836115d7565b9250817fffffffffffffffffffffffffffffffffffffffffffffffffffffffffffffffff048311821515161561184957611848611797565b5b828202905092915050565b600061185f826115d7565b915061186a836115d7565b9250827fffffffffffffffffffffffffffffffffffffffffffffffffffffffffffffffff0382111561189f5761189e611797565b5b828201905092915050565b600081549050919050565b60008190508160005260206000209050919050565b60008160001c9050919050565b6000819050919050565b60006118f46118ef836118ca565b6118d7565b9050919050565b600061190782546118e1565b9050919050565b6000600182019050919050565b6000611926826118aa565b61193081856115b6565b935061193b836118b5565b8060005b8381101561197357611950826118fb565b61195a88826115f0565b97506119658361190e565b92505060018101905061193f565b5085935050505092915050565b600060c082019050818103600083015261199a818961191b565b905081810360208301526119ae818861191b565b90506119bd6040830187611695565b6119ca6060830186611695565b6119d760808301856116cb565b6119e460a08301846116cb565b979650505050505050565b7f4e487b7100000000000000000000000000000000000000000000000000000000600052603260045260246000fd5b7f4e487b7100000000000000000000000000000000000000000000000000000000600052601260045260246000fd5b6000611a58826115d7565b9150611a63836115d7565b925082611a7357611a72611a1e565b5b828206905092915050565b6000611a89826115d7565b9150611a94836115d7565b925082611aa457611aa3611a1e565b5b828204905092915050565b6000606082019050611ac46000830186611727565b611ad16020830185611695565b611ade6040830184611695565b949350505050565b6000608082019050611afb60008301876116cb565b611b086020830186611695565b611b156040830185611695565b611b2260608301846116cb565b95945050505050565b6000611b36826115d7565b91507fffffffffffffffffffffffffffffffffffffffffffffffffffffffffffffffff8203611b6857611b67611797565b5b600182019050919050565b6000819050919050565b611b8e611b89826115d7565b611b73565b82525050565b6000611ba08285611b7d565b602082019150611bb08284611b7d565b6020820191508190509392505050565b60008160601b9050919050565b6000611bd882611bc0565b9050919050565b6000611bea82611bcd565b9050919050565b611c02611bfd82611715565b611bdf565b82525050565b6000611c148288611b7d565b602082019150611c248287611b7d565b602082019150611c348286611b7d565b602082019150611c448285611bf1565b601482019150611c548284611bf1565b601482019150819050969550505050505056fea264697066735822122090df4024de9a141e7ed2d3565bd8d723631d6e4b86bb2c31a9a0b425130925d764736f6c634300080d0033",
  "immutableReferences": {},
  "source": "// SPDX-License-Identifier: MIT\npragma solidity ^0.8.13;\n\n//import \"hardhat/console.sol\";\n\ncontract BlackJackV2 {\n\n  bool public gameStart = false;\n  bool public playerWin = false;\n\n  address public dealer;\n  address public player;\n\n  uint public dealerBalance;\n  uint public playerBalance;\n\n  uint[] dealerHand; // store the card indexes in dealer's hand\n  uint[] playerHand; // store the card indexes in player's hand\n  uint cardDrawn;\n\n  uint public minBet;\n  uint public maxBet; // minBet and maxBet for each round, defined by dealer when he deploy the contract.\n\n  // the whole deck of the game, cards are drawn in this deck.\n  // length = 52 * 3, meaning we are using 3 decks of cards.\n  // this is to store whether a specifc card still exists.\n  uint[] deck = new uint[](52*3);\n\n  //events\n  event JoinGame(address _player, uint _dealerBalance, uint _playerBalance );\n  event StartGame(bool _gameStart,uint _dealerBalance, uint _playerBalance, bool _playerWin);\n  event PlayerHit(uint[] _playerHand, uint[] _dealerHand,uint _dealerBalance, uint _playerBalance, bool _playerWin, bool _gameStart);\n  event PlayerStand(uint[] _playerHand, uint[] _dealerHand,uint _dealerBalance, uint _playerBalance, bool _playerWin, bool _gameStart);\n\n  // CONSTRUCTOR\n  constructor(uint _minBet, uint _maxBet) payable {\n\n    require(msg.value > _maxBet * 10, \"You provide too little bet\");\n    minBet = _minBet;\n    maxBet = _maxBet;\n    dealer = msg.sender;\n    dealerBalance = msg.value;\n\n  }\n\n\n  // change the number of cards as 1,\n  // deck from [0, 0, 0, ... , 0]\n  //        to [1, 1, 1, ... , 1].\n  function defaultCardDeck() private {\n    for (uint i = 0; i < deck.length; i++) {\n      deck[i] = 1;\n    }\n  }\n\n\n  // generate a random number, we need to figure out a better way maybe?\n  // we need to ensure the random number cannot be guessed given the params\n  // in keccak within a block mining round time\n  function randomNumber() private view returns(uint) {\n    uint hashCardDrawn = uint(keccak256(abi.encodePacked(block.timestamp, cardDrawn)));\n    return uint(keccak256(abi.encodePacked(hashCardDrawn, block.difficulty, block.timestamp, dealer, player))) % (52 * 3);\n  }\n\n\n  // anyone can join this game, once (s)he's in, the player can only be him/her.\n  // only admit players to join in if no other player is in the game.\n  // *** CALLABLE\n  function joinGame() public payable {\n    //console.log(minBet);\n    //console.log(maxBet);\n    require (player == address(0));\n    require (msg.value >= minBet && msg.value <= maxBet);\n    require (msg.value % 10 == 0);\n    require (dealerBalance >= (msg.value*25)/10);\n    player = msg.sender;\n    playerBalance += msg.value;\n    emit JoinGame(player,dealerBalance,playerBalance);\n\n  }\n\n  // *** CALLABLE\n  // function putBet() public payable onlyPlayer {\n  //   require (msg.value >= minBet && msg.value <= maxBet);\n  //   require (msg.value % 10 == 0);\n  //   playerBalance += msg.value;\n  // }\n\n\n  // randomly draw a card from deck, if the card drawn is drawn before, draw again,\n  // if the card drawn is never drawn before, set deck[index] => 0.\n  // *** CALLABLE\n  function hitCard() private returns(uint) {\n    uint randomCardIndex = randomNumber() % (52 * 3);\n    while (deck[randomCardIndex] == 0) {\n      randomCardIndex = randomNumber() % (52 * 3);\n    }\n    deck[randomCardIndex] = 0;\n    cardDrawn += 1;\n    return randomCardIndex;\n  }\n\n  // *** CALLABLE\n  function playerHitCard() public onlyPlayer {\n    require (gameStart == true);\n    uint newCard = hitCard();\n    playerHand.push(newCard);\n    uint[2] memory playerCardValues = getSumInHand(playerHand);\n    if (check21(playerCardValues) == true) {\n      // transfer the balance to the player\n      gameStart = false;\n      playerWin = true;\n      dealerBalance -= playerBalance;\n      playerBalance *= 2;\n    }\n    if (checkOver21(playerCardValues) == true) {\n      // transfer the balance to the dealer\n      gameStart = false;\n      dealerBalance += playerBalance;\n      playerBalance = 0;\n    }\n\n    emit PlayerHit(playerHand, dealerHand,dealerBalance,playerBalance,gameStart,playerWin);\n  }\n\n  // *** CALLABLE\n  function playerStand() public {\n    // dealer call when time out\n    require (msg.sender == player || msg.sender == dealer);\n    require (gameStart == true);\n    uint[2] memory dealerCardValues = getSumInHand(dealerHand);\n    uint dealerLargerValue = dealerCardValues[1];\n    while (dealerLargerValue < 17) {\n      dealerHand.push(hitCard());\n      dealerCardValues = getSumInHand(dealerHand);\n      if (dealerCardValues[1] > 21) {\n        dealerLargerValue = dealerCardValues[0];\n      }\n      \n    }\n    if (dealerLargerValue > 21) {\n      playerWin = true;\n      dealerBalance -= playerBalance;\n      playerBalance *= 2;\n      emit PlayerStand(playerHand, dealerHand, dealerBalance,playerBalance,gameStart,playerWin);\n      return;       \n      // transfer money to player\n    }\n    uint[2] memory playerCardValue = getSumInHand(playerHand);\n    uint playerLargerValue = 0;\n    if (playerCardValue[1] > 21) {\n      playerLargerValue = playerCardValue[0];\n    } else {\n      playerLargerValue = playerCardValue[1];\n    }\n    if (dealerLargerValue >= playerLargerValue) {\n      // deduct player balance, add to dealer's balance;\n      dealerBalance += playerBalance;\n      playerBalance = 0;\n    } else {\n      playerWin = true;\n      // transfer money to player, same amount as player's balance\n      dealerBalance -= playerBalance;\n      playerBalance *= 2;\n    }\n    gameStart = false;\n    emit PlayerStand(playerHand, dealerHand, dealerBalance,playerBalance,gameStart,playerWin);\n  }\n\n\n  // returns the sum of the card values in player/dealers hand\n  // array because we at most have two values in hand (considering Ace)\n  // for example,\n  // cardInHand = [A, J] => [11, 21]\n  // cardInHand = [A, A] => [2, 12]\n  // cardInHand = [A, A, A] => [3, 13]\n  // cardInHand = [1, 2, 3] => [6, 6]\n  // cardInHand = [J, K, Q] => [30, 30]\n  // cardInHand = [A, A, 10] => [12, 22]\n  function getSumInHand(uint[] storage hand) private view returns(uint[2] memory) {\n    uint[2] memory cardValues = [uint(0), uint(0)];\n    for (uint i = 0; i < hand.length; i++) {\n      uint cardIndex = hand[i];\n      uint cardValue = cardIndex % 52 % 13 + 1;\n      if (cardValue > 10) {\n        cardValues[0] += 10;\n        cardValues[1] += 10;\n      } else if (cardValue == 1) {\n        if (cardValues[1] >= 11) {\n          cardValues[0] += 1;\n          cardValues[1] += 1;\n        } else {\n          cardValues[0] += 1;\n          cardValues[1] += 11;\n        }\n      } else {\n        cardValues[0] += cardValue;\n        cardValues[1] += cardValue;\n      }\n    }\n    return cardValues;\n  }\n\n\n  // get the possible sums of card in hand.\n  // if any is 21, return true, else return false\n  // only trigger at the initial stage.\n  function check21(uint[2] memory cardValues) private pure returns(bool){\n    if (cardValues[0] == 21 || cardValues[1] == 21) {\n      return true;\n    }\n    return false;\n  }\n\n\n  // check if the player/dealer can still hit cards, if both possible sum in his/her hand > 21\n  // return true, else return false.\n  function checkOver21(uint[2] memory cardValues) private pure returns(bool) {\n    if (cardValues[0] > 21){\n      return true;\n    }\n    return false;\n  }\n\n\n  // start game, only dealer can call.\n  // *** CALLABLE\n  function startGame() public onlyDealer() {\n    require (dealer != address(0) && player != address(0));\n    gameStart = true;\n    defaultCardDeck();\n\n    // send the initial two cards to both\n    uint playerCard1 = hitCard();\n    playerHand.push(playerCard1);\n    uint dealerCard1 = hitCard();\n    dealerHand.push(dealerCard1);\n    uint playerCard2 = hitCard();\n    playerHand.push(playerCard2);\n    uint dealerCard2 = hitCard();\n    dealerHand.push(dealerCard2);\n\n    \n\n    // check if cardValue of player is == 21\n    uint[2] memory playerCardValues = getSumInHand(playerHand);\n    if (check21(playerCardValues) == true) {\n      // transfer players balance * 2\n      gameStart = false;\n      playerWin = true;\n      uint winnings = (playerBalance * 25) / 10;\n      dealerBalance -= winnings;\n      playerBalance += winnings;\n    }\n\n    emit StartGame(gameStart,dealerBalance,playerBalance,playerWin);\n    // increase bet size\n    // check if cardValue of dealerCard2 is == 1, if yes, insurance\n    // check if cardValue of playerCard1 == playerCard2, if yes, split. This part is hard because i cant figure out a way to store multiple hands of a single player.\n  }\n\n  function withdraw() public {\n    require (msg.sender == player || msg.sender == dealer);\n    uint amount;\n    if (msg.sender == player) {\n      amount = playerBalance;\n      playerBalance = 0;\n    } else {\n      amount = dealerBalance;\n      dealerBalance = 0;\n    }\n    (bool sent, ) = msg.sender.call{value: amount}(\"\");\n    require (sent);\n  }\n  // a player can only quit a game if the game is not on.\n  // CALLABLE ***\n  function quitGame() public onlyPlayer {\n    require(gameStart == false);\n    playerWin = false;\n    player = address(0);\n  }\n\n  function getDealerHand() external view returns(uint[] memory){\n    return dealerHand;\n  }\n\n  function getPlayerHand() external view returns(uint[] memory){\n    return playerHand;\n  }\n\n   \n\n\n  // MODIFIERs\n\n  modifier onlyPlayer() {\n    require (msg.sender == player);\n    _;\n  }\n\n\n  modifier onlyDealer() {\n    require (msg.sender == dealer);\n    _;\n  }\n \n}\n\n\n\n\n\n// END OF THE FILE\n",
  "sourcePath": "/Users/tedwu/Desktop/ 4/Blackjack/Blackjack_frontend/truffle/contracts/BlackJackV2.sol",
  "compiler": {
    "name": "solc",
    "version": "0.8.13+commit.abaa5c0e.Emscripten.clang"
  },
  "schemaVersion": "3.4.7",
  "updatedAt": "2022-05-26T07:27:31.264Z",
  "networkType": "ethereum",
  "devdoc": {
    "kind": "dev",
    "methods": {},
    "version": 1
  },
  "userdoc": {
    "kind": "user",
    "methods": {},
    "version": 1
  }
}