{
  "contractName": "BlackJackV2",
  "abi": [
    {
      "inputs": [
        {
          "internalType": "uint256",
          "name": "_minBet",
          "type": "uint256"
        },
        {
          "internalType": "uint256",
          "name": "_maxBet",
          "type": "uint256"
        }
      ],
      "stateMutability": "payable",
      "type": "constructor",
      "payable": true
    },
    {
      "inputs": [],
      "name": "dealer",
      "outputs": [
        {
          "internalType": "address",
          "name": "",
          "type": "address"
        }
      ],
      "stateMutability": "view",
      "type": "function",
      "constant": true
    },
    {
      "inputs": [],
      "name": "dealerBalance",
      "outputs": [
        {
          "internalType": "uint256",
          "name": "",
          "type": "uint256"
        }
      ],
      "stateMutability": "view",
      "type": "function",
      "constant": true
    },
    {
      "inputs": [],
      "name": "gameStart",
      "outputs": [
        {
          "internalType": "bool",
          "name": "",
          "type": "bool"
        }
      ],
      "stateMutability": "view",
      "type": "function",
      "constant": true
    },
    {
      "inputs": [],
      "name": "maxBet",
      "outputs": [
        {
          "internalType": "uint256",
          "name": "",
          "type": "uint256"
        }
      ],
      "stateMutability": "view",
      "type": "function",
      "constant": true
    },
    {
      "inputs": [],
      "name": "minBet",
      "outputs": [
        {
          "internalType": "uint256",
          "name": "",
          "type": "uint256"
        }
      ],
      "stateMutability": "view",
      "type": "function",
      "constant": true
    },
    {
      "inputs": [],
      "name": "player",
      "outputs": [
        {
          "internalType": "address",
          "name": "",
          "type": "address"
        }
      ],
      "stateMutability": "view",
      "type": "function",
      "constant": true
    },
    {
      "inputs": [],
      "name": "playerBalance",
      "outputs": [
        {
          "internalType": "uint256",
          "name": "",
          "type": "uint256"
        }
      ],
      "stateMutability": "view",
      "type": "function",
      "constant": true
    },
    {
      "inputs": [],
      "name": "playerWin",
      "outputs": [
        {
          "internalType": "bool",
          "name": "",
          "type": "bool"
        }
      ],
      "stateMutability": "view",
      "type": "function",
      "constant": true
    },
    {
      "inputs": [],
      "name": "joinGame",
      "outputs": [],
      "stateMutability": "payable",
      "type": "function",
      "payable": true
    },
    {
      "inputs": [],
      "name": "playerHitCard",
      "outputs": [],
      "stateMutability": "nonpayable",
      "type": "function"
    },
    {
      "inputs": [],
      "name": "playerStand",
      "outputs": [],
      "stateMutability": "nonpayable",
      "type": "function"
    },
    {
      "inputs": [],
      "name": "startGame",
      "outputs": [],
      "stateMutability": "nonpayable",
      "type": "function"
    },
    {
      "inputs": [],
      "name": "quitGame",
      "outputs": [],
      "stateMutability": "nonpayable",
      "type": "function"
    },
    {
      "inputs": [],
      "name": "getDealerHand",
      "outputs": [
        {
          "internalType": "uint256[]",
          "name": "",
          "type": "uint256[]"
        }
      ],
      "stateMutability": "nonpayable",
      "type": "function"
    },
    {
      "inputs": [],
      "name": "getPlayerHand",
      "outputs": [
        {
          "internalType": "uint256[]",
          "name": "",
          "type": "uint256[]"
        }
      ],
      "stateMutability": "nonpayable",
      "type": "function"
    }
  ],
  "bytecode": "0x608060405260008060006101000a81548160ff02191690831515021790555060008060016101000a81548160ff021916908315150217905550609c67ffffffffffffffff811115620000565762000055620001e5565b5b604051908082528060200260200182016040528015620000855781602001602082028036833780820191505090505b50600990805190602001906200009d92919062000174565b5060405162001866380380620018668339818101604052810190620000c3919062000254565b600a81620000d29190620002ca565b341162000116576040517f08c379a00000000000000000000000000000000000000000000000000000000081526004016200010d906200038c565b60405180910390fd5b816007819055508060088190555033600060026101000a81548173ffffffffffffffffffffffffffffffffffffffff021916908373ffffffffffffffffffffffffffffffffffffffff160217905550346002819055505050620003ae565b828054828255906000526020600020908101928215620001b3579160200282015b82811115620001b257825182559160200191906001019062000195565b5b509050620001c29190620001c6565b5090565b5b80821115620001e1576000816000905550600101620001c7565b5090565b7f4e487b7100000000000000000000000000000000000000000000000000000000600052604160045260246000fd5b600080fd5b6000819050919050565b6200022e8162000219565b81146200023a57600080fd5b50565b6000815190506200024e8162000223565b92915050565b600080604083850312156200026e576200026d62000214565b5b60006200027e858286016200023d565b925050602062000291858286016200023d565b9150509250929050565b7f4e487b7100000000000000000000000000000000000000000000000000000000600052601160045260246000fd5b6000620002d78262000219565b9150620002e48362000219565b9250817fffffffffffffffffffffffffffffffffffffffffffffffffffffffffffffffff048311821515161562000320576200031f6200029b565b5b828202905092915050565b600082825260208201905092915050565b7f596f752070726f7669646520746f6f206c6974746c6520626574000000000000600082015250565b600062000374601a836200032b565b915062000381826200033c565b602082019050919050565b60006020820190508181036000830152620003a78162000365565b9050919050565b6114a880620003be6000396000f3fe6080604052600436106100e85760003560e01c80639619367d1161008a578063c9f09d3811610059578063c9f09d381461029e578063d4f77b1c146102b5578063d65ab5f2146102bf578063fffae4fa146102d6576100e8565b80639619367d1461021a5780639de2ee21146102455780639fda4d0514610270578063b4a6051214610287576100e8565b806348db5f89116100c657806348db5f891461016e5780635e5bad7c1461019957806364351403146101c4578063651f066a146101ef576100e8565b80631ab9964c146100ed5780632e5b2168146101185780633218b99d14610143575b600080fd5b3480156100f957600080fd5b50610102610301565b60405161010f9190611144565b60405180910390f35b34801561012457600080fd5b5061012d610359565b60405161013a9190611175565b60405180910390f35b34801561014f57600080fd5b5061015861035f565b60405161016591906111ab565b60405180910390f35b34801561017a57600080fd5b50610183610370565b6040516101909190611207565b60405180910390f35b3480156101a557600080fd5b506101ae610396565b6040516101bb9190611175565b60405180910390f35b3480156101d057600080fd5b506101d961039c565b6040516101e691906111ab565b60405180910390f35b3480156101fb57600080fd5b506102046103af565b6040516102119190611175565b60405180910390f35b34801561022657600080fd5b5061022f6103b5565b60405161023c9190611175565b60405180910390f35b34801561025157600080fd5b5061025a6103bb565b6040516102679190611207565b60405180910390f35b34801561027c57600080fd5b506102856103e1565b005b34801561029357600080fd5b5061029c610519565b005b3480156102aa57600080fd5b506102b36105d5565b005b6102bd61082e565b005b3480156102cb57600080fd5b506102d461091b565b005b3480156102e257600080fd5b506102eb610b81565b6040516102f89190611144565b60405180910390f35b6060600580548060200260200160405190810160405280929190818152602001828054801561034f57602002820191906000526020600020905b81548152602001906001019080831161033b575b5050505050905090565b60085481565b60008054906101000a900460ff1681565b600160009054906101000a900473ffffffffffffffffffffffffffffffffffffffff1681565b60025481565b600060019054906101000a900460ff1681565b60035481565b60075481565b600060029054906101000a900473ffffffffffffffffffffffffffffffffffffffff1681565b600160009054906101000a900473ffffffffffffffffffffffffffffffffffffffff1673ffffffffffffffffffffffffffffffffffffffff163373ffffffffffffffffffffffffffffffffffffffff161461043b57600080fd5b6001151560008054906101000a900460ff1615151461045957600080fd5b6000610463610bd9565b90506005819080600181540180825580915050600190039060005260206000200160009091909190915055600061049a6005610c79565b9050600115156104a982610ec6565b1515036104e65760008060006101000a81548160ff0219169083151502179055506001600060016101000a81548160ff0219169083151502179055505b600115156104f382610f1f565b1515036105155760008060006101000a81548160ff0219169083151502179055505b5050565b600160009054906101000a900473ffffffffffffffffffffffffffffffffffffffff1673ffffffffffffffffffffffffffffffffffffffff163373ffffffffffffffffffffffffffffffffffffffff161461057357600080fd5b6000151560008054906101000a900460ff1615151461059157600080fd5b6000600160006101000a81548173ffffffffffffffffffffffffffffffffffffffff021916908373ffffffffffffffffffffffffffffffffffffffff160217905550565b600160009054906101000a900473ffffffffffffffffffffffffffffffffffffffff1673ffffffffffffffffffffffffffffffffffffffff163373ffffffffffffffffffffffffffffffffffffffff16148061067e5750600060029054906101000a900473ffffffffffffffffffffffffffffffffffffffff1673ffffffffffffffffffffffffffffffffffffffff163373ffffffffffffffffffffffffffffffffffffffff16145b61068757600080fd5b6001151560008054906101000a900460ff161515146106a557600080fd5b60006106b16004610c79565b90506000816001600281106106c9576106c8611222565b5b602002015190505b60118110156107585760046106e4610bd9565b90806001815401808255809150506001900390600052602060002001600090919091909150556107146004610c79565b915060158260016002811061072c5761072b611222565b5b60200201511115610753578160006002811061074b5761074a611222565b5b602002015190505b6106d1565b601581111561077d576001600060016101000a81548160ff0219169083151502179055505b60006107896005610c79565b905060006015826001600281106107a3576107a2611222565b5b602002015111156107ce57816000600281106107c2576107c1611222565b5b602002015190506107ea565b816001600281106107e2576107e1611222565b5b602002015190505b8083101561080e576001600060016101000a81548160ff0219169083151502179055505b60008060006101000a81548160ff02191690831515021790555050505050565b600073ffffffffffffffffffffffffffffffffffffffff16600160009054906101000a900473ffffffffffffffffffffffffffffffffffffffff1673ffffffffffffffffffffffffffffffffffffffff161461088957600080fd5b600754341015801561089d57506008543411155b6108a657600080fd5b6000600a346108b59190611280565b146108bf57600080fd5b33600160006101000a81548173ffffffffffffffffffffffffffffffffffffffff021916908373ffffffffffffffffffffffffffffffffffffffff160217905550346003600082825461091291906112e0565b92505081905550565b600060029054906101000a900473ffffffffffffffffffffffffffffffffffffffff1673ffffffffffffffffffffffffffffffffffffffff163373ffffffffffffffffffffffffffffffffffffffff161461097557600080fd5b600073ffffffffffffffffffffffffffffffffffffffff16600060029054906101000a900473ffffffffffffffffffffffffffffffffffffffff1673ffffffffffffffffffffffffffffffffffffffff1614158015610a235750600073ffffffffffffffffffffffffffffffffffffffff16600160009054906101000a900473ffffffffffffffffffffffffffffffffffffffff1673ffffffffffffffffffffffffffffffffffffffff1614155b610a2c57600080fd5b60016000806101000a81548160ff021916908315150217905550610a4e610f55565b6000610a58610bd9565b905060058190806001815401808255809150506001900390600052602060002001600090919091909150556000610a8d610bd9565b905060048190806001815401808255809150506001900390600052602060002001600090919091909150556000610ac2610bd9565b905060058190806001815401808255809150506001900390600052602060002001600090919091909150556000610af7610bd9565b905060048190806001815401808255809150506001900390600052602060002001600090919091909150556000610b2e6005610c79565b905060011515610b3d82610ec6565b151503610b7a5760008060006101000a81548160ff0219169083151502179055506001600060016101000a81548160ff0219169083151502179055505b5050505050565b60606004805480602002602001604051908101604052809291908181526020018280548015610bcf57602002820191906000526020600020905b815481526020019060010190808311610bbb575b5050505050905090565b600080609c610be6610f9f565b610bf09190611280565b90505b600060098281548110610c0957610c08611222565b5b906000526020600020015403610c3457609c610c23610f9f565b610c2d9190611280565b9050610bf3565b600060098281548110610c4a57610c49611222565b5b9060005260206000200181905550600160066000828254610c6b91906112e0565b925050819055508091505090565b610c8161105a565b60006040518060400160405280600081526020016000815250905060005b8380549050811015610ebc576000848281548110610cc057610cbf611222565b5b9060005260206000200154905060006001600d603484610ce09190611280565b610cea9190611280565b610cf491906112e0565b9050600a811115610d6057600a84600060028110610d1557610d14611222565b5b60200201818151610d2691906112e0565b91508181525050600a84600160028110610d4357610d42611222565b5b60200201818151610d5491906112e0565b91508181525050610ea7565b60018103610e4b57600b84600160028110610d7e57610d7d611222565b5b602002015110610de957600184600060028110610d9e57610d9d611222565b5b60200201818151610daf91906112e0565b91508181525050600184600160028110610dcc57610dcb611222565b5b60200201818151610ddd91906112e0565b91508181525050610e46565b600184600060028110610dff57610dfe611222565b5b60200201818151610e1091906112e0565b91508181525050600b84600160028110610e2d57610e2c611222565b5b60200201818151610e3e91906112e0565b915081815250505b610ea6565b8084600060028110610e6057610e5f611222565b5b60200201818151610e7191906112e0565b915081815250508084600160028110610e8d57610e8c611222565b5b60200201818151610e9e91906112e0565b915081815250505b5b50508080610eb490611336565b915050610c9f565b5080915050919050565b6000601582600060028110610ede57610edd611222565b5b60200201511480610f075750601582600160028110610f0057610eff611222565b5b6020020151145b15610f155760019050610f1a565b600090505b919050565b6000601582600060028110610f3757610f36611222565b5b60200201511115610f4b5760019050610f50565b600090505b919050565b60005b600980549050811015610f9c57600160098281548110610f7b57610f7a611222565b5b90600052602060002001819055508080610f9490611336565b915050610f58565b50565b60008042600654604051602001610fb792919061139f565b6040516020818303038152906040528051906020012060001c9050609c814442600060029054906101000a900473ffffffffffffffffffffffffffffffffffffffff16600160009054906101000a900473ffffffffffffffffffffffffffffffffffffffff16604051602001611031959493929190611413565b6040516020818303038152906040528051906020012060001c6110549190611280565b91505090565b6040518060400160405280600290602082028036833780820191505090505090565b600081519050919050565b600082825260208201905092915050565b6000819050602082019050919050565b6000819050919050565b6110bb816110a8565b82525050565b60006110cd83836110b2565b60208301905092915050565b6000602082019050919050565b60006110f18261107c565b6110fb8185611087565b935061110683611098565b8060005b8381101561113757815161111e88826110c1565b9750611129836110d9565b92505060018101905061110a565b5085935050505092915050565b6000602082019050818103600083015261115e81846110e6565b905092915050565b61116f816110a8565b82525050565b600060208201905061118a6000830184611166565b92915050565b60008115159050919050565b6111a581611190565b82525050565b60006020820190506111c0600083018461119c565b92915050565b600073ffffffffffffffffffffffffffffffffffffffff82169050919050565b60006111f1826111c6565b9050919050565b611201816111e6565b82525050565b600060208201905061121c60008301846111f8565b92915050565b7f4e487b7100000000000000000000000000000000000000000000000000000000600052603260045260246000fd5b7f4e487b7100000000000000000000000000000000000000000000000000000000600052601260045260246000fd5b600061128b826110a8565b9150611296836110a8565b9250826112a6576112a5611251565b5b828206905092915050565b7f4e487b7100000000000000000000000000000000000000000000000000000000600052601160045260246000fd5b60006112eb826110a8565b91506112f6836110a8565b9250827fffffffffffffffffffffffffffffffffffffffffffffffffffffffffffffffff0382111561132b5761132a6112b1565b5b828201905092915050565b6000611341826110a8565b91507fffffffffffffffffffffffffffffffffffffffffffffffffffffffffffffffff8203611373576113726112b1565b5b600182019050919050565b6000819050919050565b611399611394826110a8565b61137e565b82525050565b60006113ab8285611388565b6020820191506113bb8284611388565b6020820191508190509392505050565b60008160601b9050919050565b60006113e3826113cb565b9050919050565b60006113f5826113d8565b9050919050565b61140d611408826111e6565b6113ea565b82525050565b600061141f8288611388565b60208201915061142f8287611388565b60208201915061143f8286611388565b60208201915061144f82856113fc565b60148201915061145f82846113fc565b601482019150819050969550505050505056fea26469706673582212207bdf10bf7e174ce4120f24b6bb5b356c541cd71f2418701ce0b996400b45358c64736f6c634300080d0033",
  "immutableReferences": {},
  "source": "// SPDX-License-Identifier: MIT\npragma solidity ^0.8.13;\n\n//import \"hardhat/console.sol\";\n\ncontract BlackJackV2 {\n\n  bool public gameStart = false;\n  bool public playerWin = false;\n\n  address public dealer;\n  address public player;\n\n  uint public dealerBalance;\n  uint public playerBalance;\n\n  uint[] dealerHand; // store the card indexes in dealer's hand\n  uint[] playerHand; // store the card indexes in player's hand\n  uint cardDrawn;\n\n  uint public minBet;\n  uint public maxBet; // minBet and maxBet for each round, defined by dealer when he deploy the contract.\n\n  // the whole deck of the game, cards are drawn in this deck.\n  // length = 52 * 3, meaning we are using 3 decks of cards.\n  // this is to store whether a specifc card still exists.\n  uint[] deck = new uint[](52*3);\n\n  // CONSTRUCTOR\n  constructor(uint _minBet, uint _maxBet) payable {\n\n    require(msg.value > _maxBet * 10, \"You provide too little bet\");\n    minBet = _minBet;\n    maxBet = _maxBet;\n    dealer = msg.sender;\n    dealerBalance = msg.value;\n\n  }\n\n\n  // change the number of cards as 1,\n  // deck from [0, 0, 0, ... , 0]\n  //        to [1, 1, 1, ... , 1].\n  function defaultCardDeck() private {\n    for (uint i = 0; i < deck.length; i++) {\n      deck[i] = 1;\n    }\n  }\n\n\n  // generate a random number, we need to figure out a better way maybe?\n  // we need to ensure the random number cannot be guessed given the params\n  // in keccak within a block mining round time\n  function randomNumber() private view returns(uint) {\n    uint hashCardDrawn = uint(keccak256(abi.encodePacked(block.timestamp, cardDrawn)));\n    return uint(keccak256(abi.encodePacked(hashCardDrawn, block.difficulty, block.timestamp, dealer, player))) % (52 * 3);\n  }\n\n\n  // anyone can join this game, once (s)he's in, the player can only be him/her.\n  // only admit players to join in if no other player is in the game.\n  // *** CALLABLE\n  function joinGame() public payable {\n    //console.log(minBet);\n    //console.log(maxBet);\n    require (player == address(0));\n    require (msg.value >= minBet && msg.value <= maxBet);\n    require (msg.value % 10 == 0);\n    player = msg.sender;\n    playerBalance += msg.value;\n\n  }\n\n  // *** CALLABLE\n  // function putBet() public payable onlyPlayer {\n  //   require (msg.value >= minBet && msg.value <= maxBet);\n  //   require (msg.value % 10 == 0);\n  //   playerBalance += msg.value;\n  // }\n\n\n  // randomly draw a card from deck, if the card drawn is drawn before, draw again,\n  // if the card drawn is never drawn before, set deck[index] => 0.\n  // *** CALLABLE\n  function hitCard() private returns(uint) {\n    uint randomCardIndex = randomNumber() % (52 * 3);\n    while (deck[randomCardIndex] == 0) {\n      randomCardIndex = randomNumber() % (52 * 3);\n    }\n    deck[randomCardIndex] = 0;\n    cardDrawn += 1;\n    return randomCardIndex;\n  }\n\n  // *** CALLABLE\n  function playerHitCard() public onlyPlayer {\n    require (gameStart == true);\n    uint newCard = hitCard();\n    playerHand.push(newCard);\n    uint[2] memory playerCardValues = getSumInHand(playerHand);\n    if (check21(playerCardValues) == true) {\n      // transfer the balance to the player\n      gameStart = false;\n      playerWin = true;\n    }\n    if (checkOver21(playerCardValues) == true) {\n      // transfer the balance to the dealer\n      gameStart = false;\n    }\n  }\n\n  // *** CALLABLE\n  function playerStand() public {\n    // dealer call when time out\n    require (msg.sender == player || msg.sender == dealer);\n    require (gameStart == true);\n    uint[2] memory dealerCardValues = getSumInHand(dealerHand);\n    uint dealerLargerValue = dealerCardValues[1];\n    while (dealerLargerValue < 17) {\n      dealerHand.push(hitCard());\n      dealerCardValues = getSumInHand(dealerHand);\n      if (dealerCardValues[1] > 21) {\n        dealerLargerValue = dealerCardValues[0];\n      }\n    }\n    if (dealerLargerValue > 21) {\n      playerWin = true;\n      // transfer money to player\n    }\n    uint[2] memory playerCardValue = getSumInHand(playerHand);\n    uint playerLargerValue = 0;\n    if (playerCardValue[1] > 21) {\n      playerLargerValue = playerCardValue[0];\n    } else {\n      playerLargerValue = playerCardValue[1];\n    }\n    if (dealerLargerValue >= playerLargerValue) {\n      // deduct player balance, add to dealer's balance;\n    } else {\n      playerWin = true;\n      // transfer money to player, same amount as player's balance\n    }\n    gameStart = false;\n  }\n\n\n  // returns the sum of the card values in player/dealers hand\n  // array because we at most have two values in hand (considering Ace)\n  // for example,\n  // cardInHand = [A, J] => [11, 21]\n  // cardInHand = [A, A] => [2, 12]\n  // cardInHand = [A, A, A] => [3, 13]\n  // cardInHand = [1, 2, 3] => [6, 6]\n  // cardInHand = [J, K, Q] => [30, 30]\n  // cardInHand = [A, A, 10] => [12, 22]\n  function getSumInHand(uint[] storage hand) private view returns(uint[2] memory) {\n    uint[2] memory cardValues = [uint(0), uint(0)];\n    for (uint i = 0; i < hand.length; i++) {\n      uint cardIndex = hand[i];\n      uint cardValue = cardIndex % 52 % 13 + 1;\n      if (cardValue > 10) {\n        cardValues[0] += 10;\n        cardValues[1] += 10;\n      } else if (cardValue == 1) {\n        if (cardValues[1] >= 11) {\n          cardValues[0] += 1;\n          cardValues[1] += 1;\n        } else {\n          cardValues[0] += 1;\n          cardValues[1] += 11;\n        }\n      } else {\n        cardValues[0] += cardValue;\n        cardValues[1] += cardValue;\n      }\n    }\n    return cardValues;\n  }\n\n\n  // get the possible sums of card in hand.\n  // if any is 21, return true, else return false\n  // only trigger at the initial stage.\n  function check21(uint[2] memory cardValues) private pure returns(bool){\n    if (cardValues[0] == 21 || cardValues[1] == 21) {\n      return true;\n    }\n    return false;\n  }\n\n\n  // check if the player/dealer can still hit cards, if both possible sum in his/her hand > 21\n  // return true, else return false.\n  function checkOver21(uint[2] memory cardValues) private pure returns(bool) {\n    if (cardValues[0] > 21){\n      return true;\n    }\n    return false;\n  }\n\n\n  // start game, only dealer can call.\n  // *** CALLABLE\n  function startGame() public onlyDealer() {\n    require (dealer != address(0) && player != address(0));\n    gameStart = true;\n    defaultCardDeck();\n\n    // send the initial two cards to both\n    uint playerCard1 = hitCard();\n    playerHand.push(playerCard1);\n    uint dealerCard1 = hitCard();\n    dealerHand.push(dealerCard1);\n    uint playerCard2 = hitCard();\n    playerHand.push(playerCard2);\n    uint dealerCard2 = hitCard();\n    dealerHand.push(dealerCard2);\n\n    // check if cardValue of player is == 21\n    uint[2] memory playerCardValues = getSumInHand(playerHand);\n    if (check21(playerCardValues) == true) {\n      // transfer players balance * 2\n      gameStart = false;\n      playerWin = true;\n    }\n    // increase bet size\n    // check if cardValue of dealerCard2 is == 1, if yes, insurance\n    // check if cardValue of playerCard1 == playerCard2, if yes, split. This part is hard because i cant figure out a way to store multiple hands of a single player.\n  }\n\n\n  // a player can only quit a game if the game is not on.\n  // CALLABLE ***\n  function quitGame() public onlyPlayer {\n    require(gameStart == false);\n    player = address(0);\n  }\n\n  function getDealerHand() external returns(uint[] memory){\n    return dealerHand;\n  }\n\n  function getPlayerHand() external returns(uint[] memory){\n    return playerHand;\n  }\n\n   \n\n\n  // MODIFIERs\n\n  modifier onlyPlayer() {\n    require (msg.sender == player);\n    _;\n  }\n\n\n  modifier onlyDealer() {\n    require (msg.sender == dealer);\n    _;\n  }\n \n}\n\n\n\n\n\n// END OF THE FILE\n",
  "sourcePath": "/Users/tedwu/Desktop/ 4/Blackjack/Blackjack_frontend/truffle/contracts/BlackJackV2.sol",
  "compiler": {
    "name": "solc",
    "version": "0.8.13+commit.abaa5c0e.Emscripten.clang"
  },
  "schemaVersion": "3.4.7",
  "updatedAt": "2022-05-24T12:12:57.873Z",
  "networkType": "ethereum",
  "devdoc": {
    "kind": "dev",
    "methods": {},
    "version": 1
  },
  "userdoc": {
    "kind": "user",
    "methods": {},
    "version": 1
  }
}